:102000000080002011900000F98F0000F98F00007F
:1020100000000000000000000000000000000000C0
:10202000000000000000000000000000F98F000028
:102030000000000000000000F98F00006590000023
:10204000F98F0000F98F0000F98F0000F98F000070
:10205000F98F0000F98F0000F98F0000FD8F00005C
:10206000F98F0000656B0000F98F0000F98F000008
:10207000615B0000F98F0000756B0000F98F0000B4
:10208000F98F0000F98F0000F98F0000F98F000030
:1020900000000000F98F0000F98F0000F98F0000A8
:1020A000F98F0000F98F0000F98F0000F98F000010
:1020B0000000000010B5064C2378002B07D1054B1B
:1020C000002B02D0044800E000BF0123237010BDA4
:1020D000100300200000000010010100044B10B5A7
:1020E000002B03D00349044800E000BF10BDC046E8
:1020F00000000000140300201001010010B5024888
:1021000001F0E8FF10BDC046D103002010B5034820
:1021100000F0DCFF1E2006F0E9FF10BDCF03002019
:10212000F0B5072585B004AFB869C41DE017284095
:102130000019FC69C010604344196D46E408E400CE
:102140002C1BA546002404AD844204DA1E5DF64330
:102150002E550134F8E701230293FB69084C1BB2AA
:102160000193BB6912B218B209B22B000090200093
:1021700003F0DFF8200002F02BFEBD46F1BDC046A3
:1021800038030020F8B500236C4E6D4CF356012B3C
:1021900000D1BAE0022B00D1B9E0002B03D169498C
:1021A000200006F017FD802700257F02664B1B7874
:1021B0005BB2AB4200D0ACE067610023F356012B69
:1021C00000D1A9E0022B00D1A8E0002B04D15F4B85
:1021D000595D200006F002FD0135102DE6D15C4E60
:1021E0005C4D31006561200006F0F4FC5A4B1B7811
:1021F000072B00D094E080235B02636157492000E5
:1022000006F0E8FC544B1B78082B00D08AE08023B2
:102210005B0263615249200006F0DCFC310065611D
:10222000200006F0D7FC3100200006F0D3FC002788
:10223000494B1B780B2B00D076E04A4B1B785BB2E6
:10224000BB4200D070E080235B0263610022464BFA
:1022500020009A56454BDB19995C013706F0BEFC0D
:10226000102FE5D13C4B1B78092B5FD180235B02FB
:1022700063613F49200006F0ADFC6561310020003C
:1022800006F0A8FC0027344B1B780C2B50D1354BA3
:102290001B785BB2BB424BD180235B02636100229F
:1022A000314B20009A56334BDB19995C013706F00D
:1022B00095FC102FE7D1284B1B780A2B3AD18023AD
:1022C0005B0263612C49200006F084FC802731000A
:1022D0006561200006F07EFC00267F021E4B1B7805
:1022E0000D2B29D11F4B1B785BB2B34224D1676100
:1022F00000221D4B20009A56204B9B19995C0136F9
:1023000006F06CFC102EE9D1F8BD1D4948E71D49C7
:1023100046E7104B636150E71B4B59E71B4B57E7F0
:1023200065616BE7656175E765618FE76561A0E7EA
:102330006561B4E76561C5E76561D9E7BC03002065
:1023400038030020C0DA000034030020140000200D
:102350000001010001000100B8030020D2DA0000F2
:10236000D8DB0000B9030020A50300200ADC000030
:10237000D4DA00002ADC0000D9DA00004ADC0000D0
:10238000C6DA0000CCDA000024000020040000209F
:1023900010B5024802F01CFD10BDC04638030020F5
:1023A00010B5064C200002F03FFA00230121236102
:1023B000200003F0C4F9024B636110BD3803002014
:1023C00001000100F0B5214B85B01B780E00204CB8
:1023D000032B01D00E2B28D180235B0263610123E4
:1023E000002201931F3300931100163B200002F0DE
:1023F00060FE0121200003F0A2F9300009F062FF25
:10240000202307000025C2009B1A5B100393BD42E6
:1024100017DA0323039A2382EB009B186382715D12
:10242000200006F0DBFB0135F1E7012300226361A8
:1024300001931F3300931100163B200002F06CFE45
:10244000D7E7200002F0C4FC05B0F0BDB8030020BF
:1024500038030020F0B5414B8BB00021595E0A22B1
:10246000013107A806F0E2FC3D4D07992800FFF76F
:10247000A9FF07A806F06CFC3A4C0221200003F0EB
:102480005EF9394F394B39780F22042952D1019224
:102490000092083100222800FFF742FE1C2300268C
:1024A0002361334B63610493324B2000995D013605
:1024B00006F094FB082EF7D139780F222E4B052910
:1024C00042D101920092073101322800FFF728FE25
:1024D00000262A4B049A236162610593284B200051
:1024E000995D013606F07AFB082EF7D13B78062B72
:1024F0001ED100270836723332000C2120000197CC
:10250000009602F0D6FD0F233200019300930C21B8
:102510001C4B2800FFF704FE059B2361049B6361AD
:10252000194B2000D95D013706F058FB082FF7D171
:102530000BB0F0BD01210192029100920B310022FB
:10254000200002F09BFEA9E7012101920291009276
:102550000B311022200002F091FEB9E7BA030020EF
:10256000BE03002038030020B8030020ECDB00008D
:102570000100010014000020E8DC00001C00100035
:10258000240000206ADC000004000020F0B524488C
:1025900085B0FFF705FF01230022224C01931F3372
:1025A000110000932000603302F0B6FD11270321D3
:1025B000200003F0C4F8002506267F421A4B1B7842
:1025C0005BB2AB4211DD3A0001356A4311001131B3
:1025D0005531F3DB63322282144A5B1BD15666828B
:1025E0000A22200006F063FBE8E7012302931F3371
:1025F0000193083B009320000D4B0022682102F05C
:102600003DFE0C4B0021236180235B0263610A4B7A
:102610000A225956200006F04AFB05B0F0BDC0461C
:10262000BE03002038030020B7030020A7030020CA
:1026300088DC00006D000600A603002010B5040031
:102640001748FFF7ADFE174B187802380E2822D82E
:1026500007F060F8080F0F0F0F1313131313131362
:10266000171B08002000FFF791FF0F4802F0B0FB96
:1026700010BD2000FFF7EEFEF7E72000FFF782FD18
:10268000F3E70A4800F014FEEFE7094B2000196851
:1026900000F012F8E9E7074801F0FCFDE5E7C04665
:1026A000BE030020B803002038030020FC030020F4
:1026B00030030020D2030020F8B530480F00FFF7A8
:1026C0006FFE2F4C0121200003F039F800232D4E1E
:1026D00023612D4B2D496361300006F097FA0A22E1
:1026E0003900300006F0E3FA294D012F19D0022FEE
:1026F0002CD0002F3CD12749200006F087FA26492C
:10270000200006F083FA2549200006F07FFA2449CC
:10271000200006F07BFA200002F05AFB0F232B70FA
:10272000F8BD2049200006F071FA1F49200006F08C
:102730006DFA1E49200006F069FA1D49200006F0D6
:1027400065FA1C49300006F061FAE7E71A492000F3
:1027500006F05CFA1949200006F058FA18492000E2
:1027600006F054FA1749200006F050FA1649E9E736
:10277000102302482B70FFF761FFD1E7BE03002052
:1027800038030020C80C002001000100DEDA000040
:10279000B8030020E4DA0000F2DA0000FEDA0000FC
:1027A00014DB000029DB000037DB00004ADB0000FF
:1027B0005FDB000075DB000087DB000098DB0000BA
:1027C000AEDB0000C4DB0000DADB000010B5064B16
:1027D000064C1978200002F0BDFF200002F0C6FF71
:1027E00043425841C0B210BD3400002068050020AB
:1027F000204BF7B50F0000255D5FFFF7E7FF0028CE
:1028000004D11D491D4806F001FAF7BD302300240C
:102810006B43403301931A4B1A4D1978280002F08C
:1028200099FF019B28001B1900936B46197803F050
:10283000AEF80026B95D2800013603F0A8F8082E8E
:10284000F8D1280002F092FF00280AD00B4C0E4964
:10285000200006F0BFF910220099200006F027FAA8
:10286000D3E70A20083406F041FC0837302CD2D1D7
:10287000CBE7C046BA03002006DD0000C80C0020EC
:10288000340000206805002023DD000070B50D0035
:10289000084B094C1978200002F05CFF3E21200013
:1028A00003F075F82900200003F071F8200002F011
:1028B0005DFF70BD3400002068050020264BF7B591
:1028C0000C0000255D5FFFF781FF002804D123493C
:1028D000234806F09BF9F7BD220023000021303287
:1028E000197001339342FBD130236B431E007033C8
:1028F000403601931B4D1C4F2800397802F02AFF07
:10290000F1B2280003F043F8280002F02FFF3978D5
:102910000822280002F018FF082809D0104F134998
:10292000380006F057F910223100380006F0BFF9E0
:102930000027280002F032FF002806D0280003F00C
:102940007FF8E0550137082FF3D1019B0836083492
:102950009E42CFD1BFE7C046BA03002006DD00008B
:10296000C80C0020680500203400002052DD000063
:1029700070B50F4C0F4D2000297802F0EBFE3E2180
:10298000200003F004F8200002F0F0FE2978012274
:10299000200002F0D9FE200002F000FF030000201A
:1029A000834203D0200003F04BF8C0B270BDC04694
:1029B00068050020340000201FB5094B094C029324
:1029C000094B202201930423802100932000074B10
:1029D00001F012FE064A0749200006F093FE1FBDD3
:1029E000A086010038030020801A06006805002038
:1029F000000000205D46000010B5364B1878013805
:102A00000F285FD806F086FE120813131313122145
:102A1000121224303C50540800232F4AD356002B66
:102A200004DD00202D49C854013B137010BD2C4912
:102A300000200A5E002A05D10E321A70294800F0E3
:102A4000F3FDF3E7013A0A80F8E707221A70EDE791
:102A5000002125484156002923D10022234CA256AB
:102A6000002A19D10832F1E700211F4841560029F8
:102A700017D100221D4CA256002A0DD10932E5E7DC
:102A800000211948415600290BD10022174CA256AB
:102A9000002A01D10A32D9E7002A02DB013A22706A
:102AA000C4E701390170C1E7114800F08FFCBDE7B0
:102AB000104B19680029B9DD01390F481960FFF77B
:102AC000FBFDB3E70D490E4806F0A0F80D4801F0F4
:102AD000E1FBABE7B8030020B7030020A703002009
:102AE000BA030020D0030020B9030020A503002072
:102AF000FC03002030030020BE030020DFDD0000C7
:102B0000C80C0020D203002007B52C4B18780138E0
:102B10000F284AD806F0FEFD2308141414142124AB
:102B200026282A2A2A353B080023254AD3560F2B6C
:102B300015DC244908782449C854013313700EE089
:102B4000224A138801331BB2032B04DC1380204874
:102B500000F06AFD03E00023F8E708221A7007BDC1
:102B60000B22FBE70C22F9E70D22F7E70023194AB5
:102B7000D3560E2BE1DD0023174AD3560F2BEEDC84
:102B8000DBE703221A700022104B1A80DFE7134B99
:102B9000134A1B6811680193013B8B42DFDD013151
:102BA00010481160FFF788FDD9E70F490F4806F07C
:102BB0002DF80F4801F06EFBD1E7C046B8030020A6
:102BC000B7030020A6030020A7030020BA030020BB
:102BD000D0030020B9030020A50300203800002006
:102BE00030030020BE030020ECDD0000C80C0020F4
:102BF000D203002010B51A4B187801380F2827D8B7
:102C000006F088FD130C1314161813131A1C131E48
:102C10002022130C0022134B1A7006E00023114AE5
:102C2000D356082BF6DC0133137010BD0322F3E7F3
:102C30000422F1E70522EFE70722EDE70922EBE79F
:102C40000B22E9E70C22E7E7074800F067FBECE717
:102C50000649074805F0DAFF064801F01BFBE4E7E8
:102C6000B8030020A6030020FC030020C7DD0000FD
:102C7000C80C0020D203002007B5204B187801387B
:102C80000F2833D806F046FD120B13161812090947
:102C90001A121C1E1220240B194B092208E00023D3
:102CA000174AD356002BF7DD013B137007BD0422F2
:102CB0001A70FBE70522FBE70622F9E70A22F7E78D
:102CC0000C22F5E70D22F3E70E4800F033FBEDE7A9
:102CD0000D4B0E4A1B6811680193013B8B42E5DDE9
:102CE00001310B481160FFF7E7FCDFE709490A48AB
:102CF00005F08CFF094801F0CDFAD7E7B8030020B2
:102D0000A6030020FC030020380000203003002030
:102D1000BE030020D2DD0000C80C0020D20300203A
:102D2000F0B585B006F0ACF9A14C2378022B36D172
:102D3000A04F3800FFF734FB9F4D0321280002F01D
:102D4000FEFC9E4B1B785BB2002B19D000269B4BE0
:102D50001B785BB2B34213DD11220136524272433B
:102D6000110011315531F2DB63322A8206226A8268
:102D7000934A9B1BD15628000A2205F094FFE6E7F0
:102D8000012302931F330193083B009328008D4BCE
:102D90000022682102F072FA3800FFF7F9FA207871
:102DA00001380F2800D9FAE006F0BEFC3A00100006
:102DB000420046004E0057005F006700710075003A
:102DC0007B00AD00D100F50025003D007E4E3000B7
:102DD00000F090FE774D00280FD0032330002370C1
:102DE00000F022FC2800FFF7DBFA2800FFF732FB97
:102DF0002800FFF7CDFA05B0F0BD2800FFF7D0FAA4
:102E00006D4E0321300002F09AFC7049300005F04D
:102E1000E1FE2800FFF7BCFAFA20C00006F066F9D0
:102E200002232370E7E7684800F0C0FC0323F8E7BB
:102E3000674801F0B7F9DEE7082323700023654AED
:102E40001370654A1370D6E7082300222370614B84
:102E50001A70614B01321A70CDE7082300222370EB
:102E60005C4B1A705C4B0232F5E75A4A1378013B0F
:102E70005BB2002BE6DA0F23E4E7564A13780133FE
:102E80005BB213700F2BB6DD524B0022E3E75048C4
:102E900001F026FAAFE704234B48237000F058FBFB
:102EA000A9E700234C4A4B491278CB5652B2012A6B
:102EB00013D0022A1CD0002A0AD100240020474A3D
:102EC0001457474A1056474A1219105C464AD054C4
:102ED0000E2BD9DC01330B708DE7002400203F4A14
:102EE00014573F4A10563F4A1219105C3F4AEEE70A
:102EF00000240020394A1457394A1056394A121909
:102F0000105C3B4AE3E70023334A32491278CB5640
:102F100052B2012A0BD0022A11D0002AD8D10024A3
:102F200000202E4A14572E4A1056324ACCE700246D
:102F300000202A4A14572A4A10562E4AD4E7002461
:102F40000020264A1457264A10562A4AD7E700235B
:102F5000214A20491278CB5652B2012A0BD0022ABC
:102F600011D0002AB4D1002400201C4A14571C4A56
:102F70001056214AA8E700240020184A1457184A7E
:102F800010561D4AB0E700240020144A1457144A72
:102F90001056194AB3E7194800F0FEF92BE7184913
:102FA000184805F033FE0A4801F074F923E7C046DB
:102FB000B8030020BE03002038030020B703002020
:102FC000A70300206CDE0000D0030020F9DD000024
:102FD000D203002034030020BC030020A5030020FE
:102FE000B90300200CDE00001400002024000020A3
:102FF000040000202CDE00004CDE0000FC0300205A
:10300000FFDD0000C80C0020164A10B5127803003E
:10301000002A07D0052910D8080006F07BFB1A0308
:103020001E030B12052908D8080006F073FB0306DF
:103030000A0E12161800FFF7DDFD0B48FFF7FEFA27
:1030400010BD1800FFF760FDF7E71800FFF768FEF6
:10305000F3E71800FFF710FEEFE71800FFF7CCFCCE
:10306000EBE7C046A4030020BE03002070B50D00AE
:10307000124C6921200002F06DFB2900200002F0B3
:1030800086FC0021200002F0A8FC0D4900280FD189
:1030900001226921200002F057FB200002F07EFB94
:1030A000002804D0200002F0CBFCC0B270BD05495E
:1030B000054805F0ABFDFF20F8E7C0466805002095
:1030C0008FDD0000AADD0000C80C0020F8B5252126
:1030D0000600FFF7CBFF0024050001273B00A340BB
:1030E000DBB2E1B22B4206D0064A12781A4202D174
:1030F0003000FFF789FF0134062CEFD1014B1D7022
:10310000F8BDC046D30300201022014B1A7070474F
:10311000B803002010B5024800F072FD10BDC04693
:10312000D003002010B5024800F0EAFA10BDC046F6
:10313000D003002010B5044C200001F049F9200014
:1031400001F0A8F910BDC046D203002070B50025DB
:10315000204E3000FFF724F91F4C0121200002F01F
:10316000EEFA1E4B256163611D49200005F04EFDFE
:103170001C49200005F04AFD1B49200005F046FDD2
:10318000200001F025FE3000FFF70AF925611749FC
:10319000200005F03BFD1649200005F037FD1549DC
:1031A000200005F033FD200001F012FE3000FFF793
:1031B000F7F825611049200005F028FD0F4920008F
:1031C00005F024FD0E49200005F020FD200001F04F
:1031D000FFFD70BDBE030020380300200100010088
:1031E000F0DE0000FDDE000010DF000020DF000048
:1031F00029DF00003FDF000051DF000062DF000038
:103200006FDF000010B5024800F010F910BDC04695
:10321000D003002010B50F4800F098FE0E4800F0D3
:1032200005F90E48FFF7BCF800230D4C0D4923614A
:10323000200005F0EBFC0C49200005F0E7FC0B49F1
:10324000200005F0E3FC200001F0C2FD084805F075
:103250004DFF10BDD1030020D0030020BE0300208D
:103260003803002082DF000095DF0000A7DF0000A8
:1032700010270000084B10B51A78084B082A02D80E
:10328000074B9200D358074C074A2821200008F02A
:10329000D9FF064B1C6110BD2C030020BCDF0000D1
:1032A000CCDE0000D4030020C4DF0000BC000020FE
:1032B000F8B5174C06002000FFF772F820001549FA
:1032C000FFF780F8FFF7D6FF134D01212800802774
:1032D00002F035FA00247F023379A34214D9337AFD
:1032E0009C420ED16F610C232B82023B63433268F8
:1032F0006B82230199582800013405F087FCE4B261
:10330000EAE701236B61EEE7280001F061FDF8BDFB
:10331000BE030020D1DF000038030020836810B511
:10332000013B8360002B02DA0379013B8360FFF7E6
:10333000BFFF10BD70B50400134D1449280005F0FF
:1033400049FC0A22A168280005F0ADFC10492800BC
:1033500005F040FC0A222179280005F0C2FCA36890
:1033600022790133A360934201DB0023A36028008C
:10337000084905F02FFC0A22A168280005F097FCF7
:103380002000FFF795FF70BDC80C0020D6DF0000BD
:10339000FCDF00000FE00000836802681B01D31807
:1033A000996810B5040000290AD01A7B002A07D0BA
:1033B00000230160027183602000FFF779FF10BDD8
:1033C0005B68002BFBD09847F6E70000044B10B574
:1033D00003600323037100238360FFF769FF10BDBF
:1033E0008C000020074B10B51A78072A08D8013244
:1033F0001A7019780448FFF749FAFFF73BFF10BD30
:103400000022F5E72C030020CE03002010B5FFF7C3
:10341000E9FF10BD034B044A1A6003221A7100220F
:103420009A607047FC0300208C000020F0B58027D4
:1034300009259DB07F023648FEF7B2FF354C0121C9
:10344000200002F07CF90023334E23613349676189
:10345000200005F0DBFB32496661200005F0D6FB59
:103460003049200005F0D2FB2F496761200005F0AC
:10347000CDFB0321200002F062F96E2329002361B5
:103480000A226661200005F00EFC200001F0A0FC7D
:10349000FA20800005F02AFE013DCCD20024302520
:1034A00080272A00FF2104A808F04CF91F4E204B6A
:1034B0001022204930001C8008F028F91E4B02968B
:1034C0000093019710AB2A0004A91C4803F020FBCD
:1034D000302805D01A491B4805F098FB1DB0F0BDF7
:1034E0002A0010A904A808F011F904A91648FFF74A
:1034F0007FF901340A2005F0F9FD042CD1D1FA201E
:10350000C00005F0F3FD0322104B1A70E6E7C04639
:10351000BE030020380300200100010066E3000024
:1035200077E3000084E3000094E3000048050020F6
:10353000BA030020EC0000205805002008040020F9
:10354000A5E30000C80C0020CE030020B803002033
:103550000F23FF22F0B52848284E91B09D192C78F2
:103560002749202C0DD12A70C5182C78202C33D156
:103570002A70CD182C78202C31D12A70013BEDD245
:1035800001E0FF2CF0D000221E4C1F4DB35C875C85
:103590001355A3181F748F5C20331F701B4B9B5C4B
:1035A00053550132102AF1D1194E1A49300008F052
:1035B000ADF88023302201930296009504AB2100E0
:1035C000154803F0A5FA020030280BD0134914481F
:1035D00005F01CFB11B0F0BDFF2CCAD0D3E7FF2CC7
:1035E000CCD0D0E704A9200008F090F821000D48C5
:1035F000FFF7FEF8EEE7C04624000020140000208C
:10360000040000201805002058050020A703002012
:1036100048050020EC00002008040020A5E300007D
:10362000C80C0020CE03002070B51D4C90B02100C6
:103630001C48FFF743F91C4D10221C49280008F0D4
:1036400065F800231A4A1B48C15C99540133102BBA
:10365000FAD17033019300920295302204AB21001D
:10366000154803F072FA0200302805D013491448B7
:1036700005F0CCFA10B070BD04A9200008F046F89F
:103680000023104E10481149E25CF254E218157CF8
:1036900020321278C554CA540133102BF4D1E9E713
:1036A00018050020CE03002048050020EC00002073
:1036B00058050020A70300200804002040E3000074
:1036C000C80C00201400002024000020040000206A
:1036D00070B5140009492600050005F088FB103676
:1036E0002178FF2904D0002905D0280005F0E8FB47
:1036F0000134B442F4D1280070BDC04622E5000078
:10370000F0B50A228BB0060004211E4805F0CFFA5E
:1037100000251D4B30001D80FFF786FF1B4A31003E
:1037200001A8FFF7D5FF1A4A310004A8FFF7D0FF20
:10373000184A310007A8FFF7CBFF124C01A920005F
:1037400005F041FA144F2000390005F043FA04A9AE
:10375000200005F038FA3900200005F03BFA07A9EF
:10376000200005F049FA07A805F0F2FA04A805F0D0
:10377000EFFA013501A805F0EBFA042DC9D10BB021
:10378000F0BDC046C80C0020BA0300201400002081
:1037900024000020040000200CE2000010B50248C4
:1037A00002F074FD10BDC046080400200023F0B5EF
:1037B00095B00FAE444AD25C30329A550133102B8B
:1037C000F8D10023092533744048FEF7E9FD404C49
:1037D0000121200001F0B3FF0023236180233D4F2E
:1037E0005B0263613C49200005F010FA3B496761C8
:1037F000200005F00BFA3100200005F007FA8023C5
:103800005B0263613649200005F000FA03212000C5
:1038100001F095FF6E23290023610A2267612000D1
:1038200005F041FA200001F0D3FAFA20800005F0FB
:103830005DFC013DC8D200232A4907AD5A5C5A55A8
:103840000133102BFAD10024274E1F4B1B5DA355CB
:103850000134102CF9D1254F22002549380007F0FA
:1038600055FF802329000193029700960BAB22009D
:10387000204803F04DF92049102821D105AE33002E
:103880000BAA03CA03C31D4C1D4B2000197801F07D
:1038900061FF0521200002F07AF80025715D20000B
:1038A000013502F074F8082DF8D1200001F05EFF18
:1038B000002804D1134800F01BFB15B0F0BD1249DD
:1038C000124805F0A3F9F8E7A7030020BE03002083
:1038D000380300200100010066E30000DCE0000086
:1038E00094E30000C6E300005805002048050020CE
:1038F000EC00002008040020E6E00000680500203D
:1039000034000020D103002011E10000C80C002089
:1039100070B50E000A2005F0E9FB144B144C197821
:10392000200001F017FF0221200002F030F83100E2
:10393000200002F02CF8200001F018FF05000A20FA
:1039400005F0D4FB0B4C002D09D10B49200005F0EC
:1039500041F90A223100200005F0C3F970BD074982
:10396000200005F037F90A222900F4E7340000208E
:1039700068050020C80C002001E3000020E30000DF
:1039800070B50A2005F0B2FB194D1A4C28002178B9
:1039900001F0E0FE0221280001F0F9FF280001F00B
:1039A000E5FE061E0BD0144C1449200005F012F958
:1039B0000A223100200005F094F9002070BD217822
:1039C0000122280001F0C0FE0A2005F08FFB28002C
:1039D00001F0E4FE041E04D0280002F031F8C0B269
:1039E000ECE70749044805F011F92000E6E7C04676
:1039F0006805002034000020C80C0020C7E2000049
:103A0000E3E2000010B50400FFF7BAFF0100FF2851
:103A100001D00131C9B22000FFF77AFF10BD0000CC
:103A2000F8B5FFF7ADFF0001C5B280272E007F0279
:103A3000002E34D02548FEF7B3FC254C0121200090
:103A400001F07DFE0023234923616761200005F01A
:103A5000DDF8214B21496361200005F0D7F80A22E7
:103A60002900200005F03DF91D496761200005F09F
:103A7000CDF80321200001F062FE5A22164B3100DE
:103A8000636122612000503A05F00DF9200001F039
:103A90009FF9FA20800005F029FB013EC8E7114C90
:103AA0001149200005F096F80A222900200005F0AF
:103AB00014F90E49200005F0A9F8280005F016FBBE
:103AC0000B49200005F0A2F8F8BDC046BE03002057
:103AD000380300203FE100000100010049E100003F
:103AE00055E10000C80C002061E100006AE100001F
:103AF00078E10000F0B50023050091B0334908AE2D
:103B00005A5C9A550133102BFAD10024304A135DC8
:103B1000304963540134102CF9D12F4F22002F4922
:103B2000380007F0F3FD802301932A4B029700939E
:103B300022000CAB31002A4802F0EAFF102806D020
:103B40002849294805F062F8002011B0F0BD04AE04
:103B500008220CA9300007F0D9FD244F244C38006E
:103B6000217801F0F7FD0521380001F010FF002158
:103B7000380001F032FF21780822380001F0E4FD1E
:103B8000C0B200241B490828DBD1380001F058FFDF
:103B900006AAA0540134082CF7D10023F05CD15CB4
:103BA00088420AD02800FFF72DFF13490E4805F080
:103BB0002DF81248FFF734FFC6E70133082BEDD18B
:103BC00028000021FFF7A4FE0120BEE7C6E30000A5
:103BD000A70300205805002048050020EC00002025
:103BE0000804002086E10000C80C002068050020C1
:103BF00034000020B3E10000E6E10000D003002023
:103C0000F0B59DB00390A748FEF7CAFBA64C012172
:103C10002000802501F093FD00236D022361A3495C
:103C20006561200004F0F2FFA14BA249636120000E
:103C300004F0ECFFA049200004F0E8FF65619F4913
:103C4000200004F0E3FF200001F0C2F89C4D2800A2
:103C500003F0F2FB0028F9D00A22290004A805F09D
:103C60005FF804A805F096F9964919A805F0BFF881
:103C700019A904A805F02DF9041E05D104A805F022
:103C8000B2F9441E0443E40F19A805F061F8002CB2
:103C900019D08D49280004F09DFF04A9280004F0E4
:103CA000ABFF280003F0C8FB0028FAD00A22290045
:103CB00019A805F035F819A904A805F0DCF819A829
:103CC00005F046F8CDE704A805F08DF9FF2702902E
:103CD00001000A22280004F0E6FF0194019B029AE9
:103CE000934217DA764C200003F0A6FB0028F9D0A7
:103CF0000A22210007A805F013F807A805F04AF9E1
:103D0000099B002B0BD17149200004F07FFF07A80D
:103D100005F01EF804A805F01BF81DB0F0BD2C211D
:103D200007A805F014F9051E0EDA6949200004F011
:103D300051FF07A9200004F05FFF07A805F008F86D
:103D4000019B01330193C9E70300002207A90AA8D8
:103D500005F002F90AA805F046F96A1C099B07A9B3
:103D600006000DA805F0F8F82C210DA805F0EFF8D5
:103D7000051E0EDA5649200004F02CFF07A920008A
:103D800004F03AFF0DA804F0E3FF0AA804F0E0FFF6
:103D9000D3E7030000220DA910A805F0DDF86A1C86
:103DA0000F9B0DA913A805F0D7F82C2113A805F037
:103DB000CEF8051E0EDA4649200004F00BFF07A9D5
:103DC000200004F019FF13A804F0C2FF10A804F0AB
:103DD000BFFFD7E70300002213A916A805F0BCF81F
:103DE000159B6A1C13A919A805F0B6F80023032E29
:103DF0003CD838483849394AC754CF54D75401338E
:103E0000102BF9D10024129B9C4209D2210010A84A
:103E100005F080F82F4B02781A550134102CF2D19E
:103E20000024189B9C4209D2210016A805F072F8C4
:103E3000294B02781A550134102CF2D100241B9B17
:103E40009C4223D3264B03981E80FFF781FB1C4C1A
:103E50002449200004F0BEFE31000A22200004F0B4
:103E600022FF2149200004F0D1FE08E01F49200074
:103E700004F0B0FE0A223100200004F018FF19A857
:103E800004F066FF16A804F063FF9CE7210019A860
:103E900005F040F8114B02781A550134102CCED1A0
:103EA000D0E7C046BE030020380300200EE2000029
:103EB0000100010021E2000035E2000094E300006F
:103EC000C80C002050E0000048E2000059E2000069
:103ED00072E20000140000202400002004000020F2
:103EE000BA030020A2E20000ACE200008BE2000076
:103EF00070B51E2005F0FAF80E4D0F49280004F0A9
:103F000085FE0E4B0E4C1978200001F023FC002199
:103F1000200001F03CFD0121200001F038FD2000CF
:103F200001F024FC0749002800D00749280004F0CC
:103F30006DFE70BDC80C002063E40000340000205A
:103F40006805002084E40000A8E4000010B50C4BD4
:103F50000C4C1978200001F0FDFB0021200001F03D
:103F600016FD0021200001F012FD200001F0FEFBF3
:103F70000549031E054800D0054904F047FE10BD61
:103F800034000020680500201DE40000C80C00205B
:103F90003FE40000F7B5404D404C2800217801F087
:103FA000D9FB0021280001F0F2FC280001F0DEFB23
:103FB0003B48FEF7DDFC3B4B2178187001222800BE
:103FC00001F0C2FBC0B20024012803D1280001F097
:103FD00037FDC4B2344E3549300004F0FBFD1022E9
:103FE0002100300004F07DFE314F324D002C28D1ED
:103FF0000F2328003B70FEF7D3F901232E4F0193C6
:104000001F332200009321006033380001F084F850
:104010000221380001F093FB284B29493B6138000D
:1040200004F0F4FD2800FEF7B3F9264805F05EF829
:1040300021002800FEF740FB2349300004F0E6FD94
:10404000FEBD2249300004F0E1FD2800FEF7A8F98A
:1040500001230022184C01931F331100009320000C
:10406000603301F059F82000022101F068FB134B86
:1040700013492361200004F0C9FD2800FEF788F9E8
:10408000104805F033F81248FFF7CAFC0223280055
:104090003B70FEF7D3FAD3E7680500203400002018
:1040A000CE0300202C030020C80C0020D6E3000023
:1040B000B8030020BE0300203803002004000800DD
:1040C000EEE30000B80B0000F9E300000BE4000091
:1040D000D00300209621F0B502252C4F87B089012E
:1040E0000390380003F0A6F8294C05AE200001F03B
:1040F0006DFB284B692120001D7001F02BFB052171
:10410000200001F044FC0021200001F040FC2000D0
:1041100001F02CFB6921200001F01CFB062120008E
:1041200001F035FC0021200001F031FC200001F0FD
:104130001DFB8023B57000255B00338069212000C2
:1041400001F008FB715D200001F021FC002120003E
:1041500001F01DFC0135200001F008FB032DEDD11D
:104160001E2004F0C3FF01233C22009302210A48D1
:1041700000F06CFB094800F08DF90949380004F0A3
:1041800045FD0398FFF706FF07B0F0BDC80C0020FF
:1041900068050020B803002038030020D203002067
:1041A000CBE400002C4B70B518782C4C01382C490E
:1041B000072806D805F0AEFA0441434547494B4D60
:1041C0002849200001F076FE0A2004F08FFF002528
:1041D000254E2000AE19317804F000FD1E2004F0B9
:1041E00085FF3378402B0BD10026204B2000995DB2
:1041F00004F0F4FC01361E2004F078FF102EF4D1F8
:104200000135102DE4D11A49200004F0E3FC1E20F2
:1042100004F06CFF0025174B2000595D04F0DEFC14
:1042200001351E2004F062FF102DF4D11E2004F091
:104230005DFF200001F040FE70BD0F49C1E70F494E
:10424000BFE70F49BDE70F49BBE70F49B9E70F4982
:10425000B7E70F49B5E7C0462C030020CC07002084
:10426000FCF20000FCF100002400002014000020FB
:1042700021E50000040000207CF200007CF3000037
:10428000FCF300007CF40000FCF400007CF500006E
:10429000FCF5000070B50D4C0A2221780C4804F0A2
:1042A00020FD0C4D0C49280004F094FC21780A22D2
:1042B000280004F012FD0948FEF76AF8FA20C00051
:1042C00004F014FF0223237070BDC046B803002021
:1042D000C80C00203803002023E50000BE030020A6
:1042E00070B52D4E3000FEF75BF82C4C2C492000A9
:1042F00004F08CFC00232B4DEB56012B2CD0022B11
:104300002FD02949002B28D02849200004F062FC36
:104310003000FEF73DF804F0B9FE0400244804F034
:10432000E5FE04F0B3FE201A002404F08DFB2C57A8
:10433000012C18D0022C22D0002C09D15E2004F0D0
:1043400089FB1C4B1A5C1C4B1A550134102CF5D1FF
:104350001A48FFF7FDF870BD1949200004F056FC1B
:10436000D2E71849F9E700245E2004F073FB114BF3
:104370001A5C154B1A550134102CF5D1E8E70024CE
:104380005E2004F067FB0B4B1A5C104B1A5501348E
:10439000102CF5D1DCE7C046BE0300203803002016
:1043A000E3E40000BC030020F5E4000015E5000094
:1043B000B80B00004EE6000014000020D0030020DF
:1043C00000E500000BE500002400002004000020B0
:1043D000F7B5294C294F2000397801F0BBF90121AC
:1043E000200001F0D4FA0021200001F0F6FA39781B
:1043F0000122200001F0A8F9C3B20193204D012B46
:104400001ED1200001F01CFBC3B21E0000937342BA
:104410005E413978200001F09DF9F6B20199200043
:1044200001F0B5FA3100200001F0B1FA200001F0EE
:104430009DF9002809D01349280004F0E7FB16E095
:104440001149280004F0E2FBF7BD1049280004F0F0
:10445000C1FB0A220099280004F03FFC0C49280007
:1044600004F0B8FB0A223100280004F03AFC1E20B8
:1044700004F03CFEE8E7C046680500203400002058
:10448000C80C002023E60000D4E50000FCE5000095
:104490001FE60000F8B51C4C1C4D2000297801F0E7
:1044A00059F90121200001F072FA0021200001F0E9
:1044B00094FA29780122200001F046F9C0B2144D87
:1044C000012814D1200001F0BBFAC4B2114E124FE2
:1044D000012C11D10221300000F0A4FE0F493C70E4
:1044E000280004F093FB300000F072FC03E00C495C
:1044F000280004F08BFBF8BD0021300000F092FE94
:10450000002308493B70EBE76805002034000020D9
:10451000C80C002038030020A403002083E500001D
:1045200040E50000AEE50000002070477047F0B5A0
:1045300000291BDB0C25445F8C4217DD002A15DBAC
:104540000E25445F944211DD847E022C0FD0032C93
:1045500016D0012C04D1D2430489A4180A0021B238
:10456000012B13D0002B22D0022B32D0F0BD0489B6
:10457000013C611AD443428909B2121912B2EFE721
:104580004489013C641A110022B2E9E70725D417D7
:104590002C40A4182A4093400827C65FE4107443B7
:1045A0006118C46A61180A7813430B70DEE70724A8
:1045B000D31723409B180826855FDB106B435918DF
:1045C000C36A22405918012393401A000B78934381
:1045D000EBE70724D31723400826855F9B18DB10E1
:1045E0006B435918C36A01202240904002005918B9
:1045F0000B785A400A70B9E770B5002504001E0018
:1046000012B204AB09B25D5700F01EFE104B083326
:104610002360002363629E4200D10E4E2100FF22E0
:104620003331A662E3620A704A708A70CA7022004F
:1046300037321570059A2000A265069AE265064A8F
:1046400062662200643213710123537170BDC0464B
:104650004CEB00006805002000093D00054B10B53B
:10466000083304000360C06A002801D007F032F864
:10467000200010BD4CEB0000F8B50400806A0D006E
:10468000002814D02300303319780368DB6A984778
:10469000A06A002103681B689847A06A2900036884
:1046A0001B689847A06A03685B6B9847F8BD226C4B
:1046B000216D1368606A8B431360002804D003687F
:1046C00029009B689847F1E708218020E36BA26BE3
:1046D000A76C166828420ED03E4316601E68E76C31
:1046E00001393E431E601E68E76C4008BE431E60F1
:1046F0000029EDD1DAE7BE43EFE770B50400806A28
:104700000D00002812D00368A16D9B6A984729000C
:104710004D1EA9412000A631FFF7AEFFA06A002878
:1047200012D00368E16D9B6A984770BD606A0028EB
:1047300004D00368616EDB69A26E9847626C616D9C
:1047400013688B431360E2E7626C616D1368606A03
:104750000B4313600028E8D003681B6A9847E4E71E
:10476000F7B50400806A8B180D00019300282BD048
:104770002700036830373978DB6A9847A06A002140
:10478000036801261B689847A06A019A036895424E
:1047900017D0FE2E0CD95B6B9847A06A3978036856
:1047A0000126DB6A9847A06A002103681B689847C6
:1047B000A06A2978036801361B689847B6B20135AC
:1047C000E2E75B6B9847F7BD226C216D13688B4362
:1047D0001360019BAB42F6D02B78606A00930028EF
:1047E00005D0036800999B6898470135F1E70820D8
:1047F0008026E36BA26BA76C0099BC4617680E423B
:104800000FD061460F4317601F68E16C01380F43FA
:104810001F601F68E16C76088F431F600028EAD193
:10482000E3E761468F43EEE7072110B50A22835E76
:104830000733DA170A40D2180821435ED2105A43D0
:10484000C06A002106F07EFF10BD0000F0B587B001
:1048500004930CAB1B7804000593C36A0E0015008B
:10486000002B1BD02000FFF7DFFF0A23E25E0823A6
:10487000E15E202A25DC203AD30F9A180B00733B07
:10488000D90FC918012302931F3352104910019305
:104890005333009312B209B2B04B24E00A22835E74
:1048A00007220733D8171040C0180822A35EC01093
:1048B000584306F005FFE062031ED3D1180007B08D
:1048C000F0BD403AD30F9A180B00523BD90FC918CC
:1048D000012302933F330193123352104910009386
:1048E0009F4B12B209B2200000F0C8FC2300313304
:1048F0001E70A06A002800D19CE0002D00D097E037
:104900000A23E55E203D6B1E9D413C35230030337C
:104910001D70059B002B00D11BE10368DB699847E4
:10492000049B002B1BD0250000203735285600287B
:1049300015DBC0B2012104F0BFFD0121287804F08D
:1049400007FE012004F0D2FB0021287804F000FECD
:104950000A2004F0CBFB2878012104F0F9FDA06ABD
:10496000002800D1CBE00368A16D9B6A9847042220
:104970007C492000FFF7F4FE618920000139C9B2AB
:10498000FFF77AFE2500784904222000FFF7E8FEB1
:1049900000233135EB561421012B00D104392000BE
:1049A000FFF76AFE2600042270492000FFF7D8FEB8
:1049B0008F2360363370A3686D4A022793420BD071
:1049C0006C4A934200D0A8E00022AA56CF23012AC5
:1049D00000D1303B12273370DA212000FFF74CFE64
:1049E00039002000FFF748FE81212000FFF744FE38
:1049F00031782000FFF740FED9212000FFF73CFE70
:104A00000023EB56F121012B00D1CF392000FFF715
:104A100033FE200006225849FFF7A2FEA06A0028B4
:104A200000D188E00368E16D9B6A9847012345E760
:104A30006DB26BE725002700353528780121363720
:104A400004F03AFD3878012104F036FD00231821E6
:104A50000126EB56494D4B435A574948D20112188B
:104A600022643200EB185B689A4000232265FB56F3
:104A70004B435A574349D20151181218626432000D
:104A8000EB185B68606A9A40130062650A69134319
:104A90000B61002806D0059B002B00D140E703687E
:104AA000DB6A3CE7270033373100387804F004FD37
:104AB0002300343305931878310004F0FDFC002303
:104AC0001821FB562E484B435A57EB18D2011218A7
:104AD000A26332005B689A40059BA2641B785BB2BC
:104AE0004B435A57ED186B6826499E40D201511826
:104AF000E6640B691218B343E2630B6110E7606A66
:104B0000002804D00368616EDB69A26E9847626C6E
:104B1000616D13688B43136029E71B4A0227934298
:104B200000D059E70022AA56AF23012A00D19F3BAB
:104B30003370022750E7626C616D1368606A0B4343
:104B400013600123002800D1B8E603681B6A984768
:104B50006CE7049B002B00D0E5E604E76CE900005D
:104B6000ACE60000B4EB0000B8EB0000BCEB0000CA
:104B70008000200080004000C0EB000094F800009E
:104B8000104400410044004160001000F0B51400E2
:104B900005AA1688002C41DB0A25425FA2423DDDB2
:104BA000002902DA5B1800211BB20822855E5A1820
:104BB000AA4201DD6B1A1BB2002B2FDD0727E2177B
:104BC0003A401219D2105543C26A01203C40A0401D
:104BD00069185218C0B2012E0CD0002E13D0022E2C
:104BE0001CD1013B1BB2591C18D0117841401170E7
:104BF0000132F6E7013B1BB2591C0FD0117801437B
:104C000011700132F6E7C043C0B2013B1BB2591C20
:104C100004D01178014011700132F6E7F0BD0000B8
:104C2000F0B505AC2588002976DB0824065FB14283
:104C300072DA002A02DA9B1800221BB20A27C45F2C
:104C4000D718A74201DDA31A1BB2002B64DDD2B234
:104C5000DCB2D30873435918C36A591807231A40A2
:104C60001FD001339A1A314BD2B29B5C944254D27A
:104C7000FF26171B3E413340012D06D0002D08D0E2
:104C8000022D49D10E78734001E00E7833430B704A
:104C900002E00E789E430E7094423DD30826835F57
:104CA000C918A31ADBB2072B22D9022D10D11A0082
:104CB0000C78083AE4430C700825445FD2B2091915
:104CC000072AF5D80722134026D0194AD35C19E0E9
:104CD0002C00621E94411A006442E4B20C70082752
:104CE000C65F083AD2B28919072AF7D807221340BB
:104CF000002B11D00E4AD35C012D06D0002D08D018
:104D0000022D09D10A78534001E00A7813430B7051
:104D100002E00A789A430A70F0BD012DB5D0002D4B
:104D2000B7D0022DAED08919BBE7C046A4EB000076
:104D3000ACEB000037B5140006AA1588827E022A63
:104D40000DD0032A18D0012A11D1E2430489A418F6
:104D500024B20A0000952100FFF762FF0BE0E24356
:104D60004489C918A418028924B2511A09B20095BD
:104D70002200FFF70BFF37BD4289C918511A09B24B
:104D8000E7E737B5140006AA1588827E022A0DD0FF
:104D9000032A18D0012A11D10289E418141B24B265
:104DA0000A0000952100FFF7F1FE0BE0CA430189DC
:104DB000E4188918428909B2141B24B20095220014
:104DC000FFF72EFF37BDCA434189891809B2E7E7CB
:104DD000F7B50400806A00284DD00368A16D9B6A76
:104DE0009847052250492000FFF7BAFC218920008E
:104DF0000139C9B2FFF740FC07210A23E25EA06A2D
:104E00000732D3170B409B182289DB1053439BB208
:104E10000093E66A002846D02700036830373978C7
:104E2000DB6A9847A06A4021036801251B68984700
:104E3000009BA06A013B9BB20093009A036811009B
:104E40003A4A914225D0FE2D0CD95B6B9847A06A57
:104E5000397803680125DB6A9847A06A4021036816
:104E60001B689847A06A3178036801351B6898472A
:104E7000ADB20136DCE7606A002804D00368616ED9
:104E8000DB69A26E9847626C616D13688B43136097
:104E9000A7E75B6B9847A06A002838D00368E16DEC
:104EA0009B6A9847F7BD226C216D136801960B43EE
:104EB0001360009B013B9BB200931A001B4B9A426C
:104EC000E9D0019B606A1978002806D003689B68C6
:104ED0009847019B01330193EBE708208025E36BA2
:104EE000A26BA76C16680D420ED0374317601E6880
:104EF000E76C01383E431E601E68E76C6D08BE43D8
:104F00001E600028EDD1E4E7BE431660EFE7626C57
:104F1000616D1368606A0B4313600028C2D0036898
:104F20001B6A9847BEE7C046C6EB0000FFFF0000C3
:104F3000F0B51D0089B00EAB00241C5F0FAB1B88C1
:104F400016000693A31ADA179B18534002936B1AA4
:104F5000DA179B1853400393039A029B01909342E4
:104F600005DC23002C001D0033000E001900A642B2
:104F700005DC2B000D001900230034001E00331B3C
:104F80009BB204934B1BDA179B18534007936B4655
:104F900010229A5ED30F9B185B10009301238D4261
:104FA00021DA0593B44224DC019B039A1B689B69B8
:104FB0001F00029B934218DD22002900069B0198E6
:104FC000B847009B079A9B1A9BB21AB20092002A1C
:104FD00006DA059AAD18049A2DB2D3181BB20093C5
:104FE000013424B2DEE75B42DBE7069B2A002100A6
:104FF000E5E709B0F0BD704710B504682469A04723
:1050000010BD37B506AC258804680095A46BA04791
:1050100037BD37B506AC258804680095E46BA0471A
:1050200037BD73B506AC0025655F07AC26880468FC
:1050300001960095246CA04773BDF0B516000400DE
:105040000D0085B003930AAB1F8803685B6998471E
:10505000039B2268013B9B191BB200930197976A3F
:105060002B00320029002000B84723682000DB6AAB
:10507000984705B0F0BDF0B505001C000E00170004
:1050800085B00AAB1B88013C03930368A4195B69D4
:10509000984703992A680191009723B23100946AD6
:1050A00028003A00A0472B682800DB6A984705B023
:1050B000F0BDF0B50E0087B003930CAB0292002256
:1050C0009B5E050004930DAB1B88340005930368B9
:1050D0005B699847039A2B68B21894420ADA059ADA
:1050E000210000921F6A029A049B28000134B847ED
:1050F00024B2EFE7DB6A2800984707B0F0BD13B58C
:1051000001910E24015F0C22835E02680091146CF1
:1051100000221100A04713BDF0B5040015000E00D9
:1051200087B004930CAB00229B5E05930DAB1B88EC
:10513000039303685B699847039A236800925F6A48
:105140002A00049B31002000B847059B03995A1E92
:105150002368009152195F6A3100049B200012B24B
:10516000B847039A236800921F6A2A00059B310002
:105170002000B8470499039A2368013900928919DD
:1051800009B21F6A2A00059B2000B8472368200047
:10519000DB6A984707B0F0BD7047F0B585B01E00D8
:1051A0000AAB0027DF5F0BAB1B88140005000291E0
:1051B00003930268B14210D1BC4202DC3B002700DD
:1051C0001C00039901340091E31B966B1BB23A005B
:1051D00002992800B04705B0F0BDBC4211D1029B36
:1051E000B34202DC3300029E0293029B0399013317
:1051F00000919B1BD76B1BB2220031002800B847DF
:10520000E9E753699847039A2B68019200979F6AD0
:105210002800330022000299B8472B682800DB6A77
:105220009847D8E70323194010B50822835E81769A
:105230000A24025F012904D0032902D08381C2819C
:1052400010BD8281C381FBE74281C28101225242AB
:1052500042610222002310B5FF32074C0283013A5B
:105260000834FF3A436004600181818103618376E1
:10527000C2760377036210BDCCF00000F0B58DB0AC
:10528000089312AB039200229B5E0791049313AB29
:1052900000229B5E0400099314AB1B880A930368E9
:1052A0005B6998470722049B039FD91DCB171340C6
:1052B0005B18DB10059300231D0001930B92039AEA
:1052C000BBB206939B1A099A1BB29A422BDD0023AC
:1052D000049A93421EDA9AB202920B9A6D0099B226
:1052E000EDB2114204D1089A0199DB105218D55C35
:1052F0006BB2002B0ADA079B029A2000D1182368B0
:1053000009B29B693A001E000A9BB047029E013613
:1053100033B2DDE7059A019B9446069F634401374B
:1053200001933FB2CBE723682000DB6A98470DB0BA
:10533000F0BD7FB508AC0025645F09AD0026AD5F08
:105340000AAE3688019502960094FFF797FF7FBD5D
:10535000F0B595B01D001AAB1B88040005931BAB7C
:105360001E881CAB1B78089103931DAB1B7804921D
:105370000293036A002B00D0C4E00C22835E8B42B0
:1053800000DC7DE00E22835E049A934278DD0623E2
:10539000039A53435B18002B72DD029B049ADB00D7
:1053A0009B18002B6CDD037F002B03D1AF2D01D99F
:1053B0000135EDB2236820005B69984705235D4302
:1053C0000B9300230793984B5B190F93079A0F9B3E
:1053D0009B5C0A936B469B8B09936B469B890D9351
:1053E0006B460D9A1F8C099B5343FB181BB20E93FF
:1053F00008230C930023069301220A9B2068134282
:1054000052D06B461A8B198A039B012B3AD1029B0F
:10541000012B37D1099B52188569D919059B12B206
:1054200009B22000A847069B01335BB206930A9B92
:105430005B080A930C9B013BDBB20C93002BDBD186
:10544000079B01335BB207930B9B013BDBB20B93D2
:10545000002BBBD1059BB3420ED0039B2268012BCE
:105460003FD1029B012B3CD105370096156A39B21A
:105470000733049A2000A84723682000DB6A984776
:1054800015B0F0BD6B460C255B5F029D6A438A1820
:10549000059912B2019169460825495F0091C569D5
:1054A0000E992000A847BEE7059BB342BBD06B46D0
:1054B000198B1A8A039B012B0AD1029B012B07D15E
:1054C000099B5218D91912B209B285693300A8E7AD
:1054D0006B460C255B5F029D01966943521812B220
:1054E000D9E76B460C215B5E05210D98019641437F
:1054F00002987918C0000090D56909B2049A20007A
:10550000A847B9E71A7AAD1AEDB25A68ED001B68E0
:10551000551913932B880993AB780D93EB7811935E
:105520000523EB560E930623EB560F93039B012B9B
:1055300002D8029B012B56D96B4638229B5E0B93F7
:105540006B463C229B5E0C930027236820005B691E
:10555000984707970697119B069A9A4200D38BE7C4
:105560006B461B8A00260A930C9B9B18029A534396
:105570000A9AD3181BB210933B000D9A96424BD255
:105580005A1CD2B212920722134207D1099B0999E1
:10559000139A0133525C9BB2079209936B461B7FAF
:1055A0005BB2002B17DA6B46198C039B2068012B2A
:1055B0001DD1029B012B1AD10A9B0F9A9A18069BA8
:1055C000D2180E9B12B2C918836989191D0009B23D
:1055D000059B2000A847079B01365B00DBB20793C1
:1055E000F6B2129BC9E700230C930B93ACE76B4612
:1055F0000C229B5E0B9A039D92196A438918059AA7
:1056000009B201926A460825525F0092C2692000E1
:105610001500109AA847DEE7069D0D9B0135FF187F
:10562000EBB2FFB2069396E7CBEB0000F0B5026A4F
:1056300085B004000B00002A34D10A2908D1437E2A
:105640000282DB00628A9B186382012005B0F0BDF4
:105650000D29FAD0E17E007E657E00290ED010264D
:10566000A15F0626464389190C27E65FB14205DD96
:105670001226A15F2282EA00521862820290E08A1A
:105680001221625E0190A08A1026A15F009003950E
:105690002000FFF75DFE0622237E5343228A9B18DB
:1056A0002382D2E70A2905D100230382127B437E9D
:1056B0005343C7E70D29C8D0117A8B42C5D3907ADE
:1056C0009842C2D3591AC9B25068C9004518AF7878
:1056D000002F28D0E978002925D0E17E207E667E43
:1056E000002913D005216956C91941438C46102160
:1056F000675EBC440C21675EBC4507DD1227E15F95
:1057000000272782127B7243521862820290E08A3D
:105710001221625E0190A08A1027E15F009003963B
:105720002000FFF715FE2B79227EB6E7002900D175
:1057300001310176002A00D101324276704710B55E
:105740000A00FFF7F3FF10BD10B503689C6B01233F
:10575000A04710BD8C2300229B00C154103BC318EE
:105760005A609A60DA6001238375704710B5036848
:1057700001211B6B984710BDF8B505000E001700FE
:105780000024BC4208D02B68315D1B682800984774
:10579000002801D00134F4E72000F8BDFC30406A55
:1057A000704770478E239B00C15070478D239B002C
:1057B000C15070470300FC335A6A002A03D01B6AA9
:1057C000C018007E704701204042FBE770B506001C
:1057D00018250C49006901F0C5FC306901F003FB94
:1057E0002B000821307D084C4343E318595603F041
:1057F000DBFE0821707D45436419615603F0D4FE39
:1058000070BDC046A086010094F8000070B5040089
:105810000D00006901F0FCFA2900206901F0A2FCEA
:10582000206901F0E0FA70BD10B5006901F0F0FAEE
:1058300010BD0000F7B50193FA238026002504006F
:105840009B008360134B760008330F0045602900EE
:10585000009203603200183005F074FF230020002E
:10586000FC332530DD6132001D6229005D62FF30AE
:1058700005F068FF88239B00E3185D609D60DD6094
:105880006B461B78276123756B461B79A575200035
:105890006375FEBD24F1000070B50600182500698F
:1058A00001F03BFC306901F09EFA2B000821307DAD
:1058B000064C4343E318595603F076FE0821707DE9
:1058C00045436419615603F06FFE70BD94F8000003
:1058D00010B50022FFF7E0FF10BD0300802210B5D5
:1058E000FC33DC685200944208D05A6881545A68EC
:1058F0000132D2B25A60DA680132DA6010BDF7B50F
:105900000400171E019302D100252800FEBD0300EC
:105910000022FC33DA611A625A620069013201F036
:10592000A9FA061EF0D0230020691833009301F075
:1059300034FB01000098FFF7D0FF01252069BD422C
:1059400014D001F008FB00280FD0206901F072FA92
:105950000221206901F078FA206901F01EFB0100A4
:105960000098FFF7BAFF0135E8E70600206901F06B
:1059700059FA019B002B06D0002E06D00321206986
:1059800001F062FAC1E7002EBFD1013DBDE700235F
:1059900010B5827D9A420CD0882292008218D46879
:1059A00080225200944204D02530FF30FFF795FF4B
:1059B0000123180010BD0300FC33DA68002A09D067
:1059C0009A68805C9A680132D2B29A60DA68013AC9
:1059D000DA60704701204042FBE700228C2370B55B
:1059E0009B00827504000E00C15C006901F042FA60
:1059F000002806D10321206901F026FA022528009B
:105A000070BD88239B00E318DD68002D11D02000B5
:105A10002530FF302569FFF7CEFFC1B2280001F025
:105A20006BFA0028EDD10321206901F00DFA03255E
:105A3000E5E7002EE3D00321206901F005FADEE757
:105A400010B51830FFF7B7FF10BD70B5040000693E
:105A500001F078FA002815D0206901F08AFA0028B0
:105A600011D0206901F0E6F90321206901F0ECF979
:105A70008E239B00E558002D35D10023FC34E361D3
:105A80002362636270BD206901F07DFA002809D0AD
:105A9000206901F073FA002804D0206901F078FA37
:105AA0000028DED0206901F06EFA002821D120699B
:105AB00001F05AFA0028E5D0206901F069FA0028BF
:105AC00033D088239B00E318DB68FF21002B05D02F
:105AD00020002530FF30FFF76EFFC1B2206901F0D2
:105AE00023FAA075CEE7236820001B699847A847D2
:105AF000C3E7206901F09EF92069032101F0A4F9B0
:105B0000206901F045FA0028BCD0882300229B00C0
:105B1000E3185A609A60DA600123A3758D239B0015
:105B2000E3589342AED09847ACE72300FC335A6A5F
:105B3000802320695B009A4206D101F073F90321AA
:105B4000206901F081F99DE701F027FA01002000AA
:105B50001830FFF7C2FE206901F06CF9EFE7000092
:105B600010B50248FFF771FF10BDC0466805002060
:105B700010B51523142202490248FFF75BFE10BD41
:105B8000B00C00206805002070B506000C008D18D0
:105B9000AC4207D0336821789B683000984720706A
:105BA0000134F5E770BD7047704710B504004068D8
:105BB00001F0DAF80023237610BD10B5406801F03B
:105BC000F8F810BDF8B5050040680C0001F0ECF8DD
:105BD0002B68E7B2260A9B68012810D139002800FB
:105BE000FF2798472B68BC4304439B68310028007B
:105BF0009847030220003840184380B2F8BD3100B6
:105C000028009847FF262B680002344004439B6815
:105C1000390028009847B4432043EEE710B504004C
:105C200003F0ECFA200010BD10B54B1C0BD010296E
:105C300009D0EFF3108472B6102905DD02234376F4
:105C4000002C00D162B610BD0123427E1A43427679
:105C500018224A430449891816228A569340C26979
:105C60001343C361ECE7C04694F800004B1C17D007
:105C7000102915D0437E9B0712D4EFF3108272B621
:105C800018234B430749C9180123897D49B28B402A
:105C9000C1699943C16100D14176002A00D162B641
:105CA0007047C04694F80000437E002B05D09A0749
:105CB00004D5837E002B00D062B67047DB07FCD58D
:105CC000C369024A9BB2D360F7E7C04600180040A0
:105CD000037E002B04D143768376C36101330376C0
:105CE000704700007FB5036902AE04000D00029109
:105CF00072608B4203D1828AB3889A4226D02000F8
:105D000006223100103005F001FD606801F043F813
:105D10007379E17A013B581E8341227B00936068CE
:105D2000002301F0D5F933790021013BDBB2022BCE
:105D300001D8074AD15C074B2A009D4200D91A00BE
:105D4000606800F0F9FF606801F01BF87FBDC04695
:105D500074F10000001BB70070B518260400FFF7AF
:105D6000B7FF33000821207A0D4D4343EB185956F5
:105D700003F01AFC33000821A07A4343EB1859566C
:105D800003F012FC0821607A4643AD19695603F00E
:105D90000BFC044B200006CBFFF7A4FF70BDC046F0
:105DA00094F80000C407002007B5437E00910192DB
:105DB000002B07D09A070AD5EFF310835A425341BC
:105DC000837672B60099019AFFF78CFF07BDDB0757
:105DD000F8D5C369014A9BB29360F3E7001800400D
:105DE0000E490F4B10B501220B6000234A710B7155
:105DF0000C490D48083101600C49427541600C495D
:105E0000C27201811821036181720375094A0A492E
:105E10000376037303F076FC10BDC046C407002070
:105E200000093D0078F10000A4070020B80C002014
:105E30001617000000000020A95B0000F8B507005D
:105E40000C0000258E18B4420BD021780D2906D005
:105E50003B6838001B689847002802D001350134A0
:105E6000F1E72800F8BD00000023012170B5436070
:105E70000B4B0C4A08330360136804000B400A4DB7
:105E800005D12B60094B11606B602F232B8100F033
:105E9000B9F9290000F072F9054B2000236170BDAB
:105EA000E4F10000E0070020E4070020B4F1000066
:105EB000FCF2000001617047704710B50C0000F063
:105EC000A1F908232200022100F068F910BD10B5E5
:105ED00087291FD97831C9B2837A8B4214D0C37A0B
:105EE0008B4211D0037B8B420ED0437B8B420BD075
:105EF000837B8B4208D0C37B8B4205D00023C21822
:105F0000947A002C31D1917201000831FFF7D5FF4E
:105F1000012011E04BB2002B07DA012380398B40BE
:105F2000027A002113430372D6E70369595C002902
:105F300003D101234360002010BD3F220B00934397
:105F4000C02B08D1047A803B2343037211403229CD
:105F5000C2D13231C0E74BB2002BF8DA0223027A09
:105F6000134303727F231940F1E70133062BC6D197
:105F7000DFE770B5872916D97831C9B2030002006E
:105F800000240A331032002903D01D788D4200D13D
:105F90001C7001339342F6D101000831FFF78DFFE9
:105FA0000123180070BD4BB2002B07DA01228039A3
:105FB0008A40037A002193430372DFE70369595C47
:105FC00000239942EDD03F220B009343C02B08D110
:105FD0004024037A1140A34303723229CED13231D7
:105FE000CCE74BB2002BF8DA0222037A9343037218
:105FF0007F231940F1E770B505000E00FFF767FF3A
:10600000040031002800FFF7B4FFE0B270BD0000CB
:1060100010B50248FFF728FF10BDC046CC0700208E
:10602000482310B50F240B7001334B70053B8B7068
:10603000028B22404132CA70038B05201B11234082
:1060400041330B7110BD000030B50B7889B00133BE
:106050000B706B4605000D220021981D05F072FBA8
:10606000134B01AC2380134B134AA38009236372A3
:106070001833A372203BE372237323762B79E281DA
:106080000E4AA3702B8B6282032223741B1263744B
:10609000802362753D32E2826A795B4213432100BC
:1060A00019220748237501F06FFE09B030BDC046C4
:1060B00009040000010300000122000007050000A0
:1060C0002C0D0020F8B50B7804000025812B22D17F
:1060D000CB78222B1FD14B79087922791B020343FD
:1060E0009A4218D12F000D4E0121300001F054FFCB
:1060F0006469002C0AD022896168300001F044FEF6
:106100000500431C07D03F182468F2E72100300047
:1061100001F042FF3D002800F8BDC0462C0D0020D4
:106120000B0010B55A790979047912020A4300214B
:10613000944211D11C785A78A12C0FD1022314005B
:106140009C43012C16D0022A06D1020001231B32E7
:10615000094801F0F5FD0121080010BD212CFBD1FB
:106160000B2A02D19B788376F5E70A2AF4D19B7833
:10617000C376F0E72100EFE72C0D00204369002BE8
:1061800006D14161038B0A899B1803837047130072
:106190001A68002AFBD11960F4E7000030B591B00D
:1061A0001C0005006B460800110018702200581CE6
:1061B00005F0ACFA631C69796A46024801F02EFDCD
:1061C00011B030BD2C0D00200223FF3310B5C38069
:1061D000030010338360094B8322083303600023DC
:1061E0000400C3604361064B0261836102F0B0FCAE
:1061F000210002F07EFC200010BDC0467CF60000AD
:106200000000010170B50126054D064C2B68334294
:1062100003D12000FFF7D8FF2E60200070BDC046DC
:10622000F0070020F4070020020010B510320C78AF
:106230000378634003704C784378634043708C78F4
:10624000837863408370CC78C37804316340C37033
:1062500004309042EBD110BD30B5040010341578F5
:106260000B786B40037055784B786B404370957892
:106270008B786B408370CB78D57804316B40C370DA
:1062800004300432A042EAD130BD00000300074AC6
:10629000FC335A60064A9A60064ADA60064A1A8255
:1062A000B8229A74062343607047C0468284889F50
:1062B0009294989FA2A4A8AFB2B4FFFF70B510004B
:1062C0001E000C001D00032D0FD8B30898000918FC
:1062D00012180420404243430020F318DBB29842D6
:1062E00010D0145C0C540130F9E70378043D23709E
:1062F0004378EDB263708378A370C3780430E370A1
:106300000434E0E770BD0000F0B5040089B0202A35
:1063100069D008D8102A0ED0182A60D00023FF2098
:10632000237009B0F0BDC02A59D080235B009A4287
:1063300059D0802AF2D10A2323700633019323789F
:106340000A0001331B01DBB203936B4621001F7966
:1063500020003B000831FFF7B1FF3A00BC460120A6
:1063600007AB03998A4252D20021A5180295029DDB
:106370006D182D79CD5401310429F8D1944536D1C9
:1063800061467918C9B25D788C4622491E784D5D08
:1063900045401D709D784D5D5D70DD784D5D895D7A
:1063A0009D70D97045B24100C8B2002D02DA1B20A1
:1063B0004140C8B2D61BF1B204910021029DCE5CCF
:1063C0006D180595049D6D1865192D7A013175407C
:1063D000059E35720429F1D10432D2B2C1E70C23F3
:1063E0002370DB18AAE70E2323701233A6E7019966
:1063F0002029DFD1013911401029DBD10021CD5CEA
:10640000044E755DCD5401310429F8D1D2E7002046
:1064100087E7C04694F60000F0B5037895B0099080
:106420000B92FF20002B00D1C8E0099B0CA8083379
:106430001A000393FFF710FF01230193099B019AB0
:106440001B7893427DD900239C460F330693053B6E
:106450000593053B04930F210F200F24049A0CABE6
:106460009A5C049B04331940049105990CAB5B5C66
:1064700004310840059006980CA9095C04300440DA
:10648000069464460CA8205C4D4C205CA25CE35C46
:10649000645C694602900298097A4600F0B249B2FB
:1064A0000790002903DA1B214E40F1B207915000FA
:1064B00051B2C5B2002902DA1B214840C5B25E00C4
:1064C000F0B259B20890002903DA1B214E40F1B214
:1064D0000891670061B2FEB2002902DA1B214F4029
:1064E000FEB2170010A90A915F40079967404F401C
:1064F00061460A986F400F5447181900029861408E
:10650000424054405A40079B41405A4004239C4417
:1065100063464D40089972404D4008997D704C404B
:106520007440BC70FA70102B95D1019B0A991A0126
:10653000039B0CA89A18FFF78FFE019B5A1CD3B23D
:106540007BE70CAA1E4B12780CA99A5C0CA80A7067
:106550000A799A5C0A710A7A9A5C0A720A7B9A5CD6
:106560000A734A7849799A5C595C4170417A595C5E
:106570004171417B4273595C82784172817A9A5CA5
:10658000595C827281708279817B9A5C595C8273DA
:106590008171C17AC27B595CC173C179595CC17286
:1065A000C178595C9B5CC171C370019B01001A01E9
:1065B000039B0B989A18FFF74FFE002015B0F0BD13
:1065C00094F60000F8B507000E0015001C00002C22
:1065D00014D031000698FFF727FE069A3800110004
:1065E000FFF71AFF013C00280AD129001023069A60
:1065F0003800FFF763FE10361035E8E72000F8BDDD
:10660000FF20FCE7F0B59DB0139202780400FF2054
:10661000002A00D153E12300120108339A1814A86C
:106620000593FFF719FE14AAA64B127814A99A5CD9
:1066300014A80A700A799A5C0A710A7A9A5C0A723A
:106640000A7B9A5C0A734A7B497A9A5C595C41736B
:106650004179595C417241784270595C827841714C
:10666000817A9A5C595C827281708279817B9A5CB2
:10667000595C82738171C179C278595CC170C17AE9
:10668000595CC171C17B595C9B5C059AC3732378CB
:106690001B24013BDBB21B01D318C1720C93059B79
:1066A0000C9A14AD934200D103E118AE29003000DA
:1066B000FFF7D2FD00239C4612960D956246129B71
:1066C000D35C0693129B63445A7807929A78DB78DE
:1066D000089209936B46069A1B7E5600F2B25BB293
:1066E0000192002B02DA6640F3B201936B46079ADF
:1066F0001B7F5600F2B25BB20292002B02DA6640B8
:10670000F3B2029320226B469B1800229A56089BF4
:106710005E00F3B20393002A02DA6640F3B20393F9
:1067200024226B469B18099A1B785600F2B25BB282
:106730000492002B02DA6640F3B204936B46042203
:106740009A56019B5B00D9B20A91002A02DA634093
:10675000DBB20A936B46029A1B7A5200D1B25BB24B
:106760000B91002B02DA6240D3B20B936B46039A73
:106770001B7B51005BB2CFB2002B01DA6140CFB27C
:106780006B46049A1B7C52005BB2D6B2002B01DA36
:106790006240D6B228226B469B1800229A560A9B6A
:1067A0005900CBB2002A01DA6140CBB22C216A46F3
:1067B0005218002151560B9A5000C2B2002901DA3A
:1067C0006040C2B27D0078B2E9B2002801DA6540CB
:1067D000E9B27500E8B20E9070B2002802DA6540A6
:1067E000E8B20E900698079D58400F9008985540C3
:1067F0004840109511900E9D0998794068400A9D77
:10680000304F5D400A950B9D0A9B55402A000E9D16
:1068100075400B95089E019D6E40029D6E405E4046
:10682000109B0D9D5E4063464E404640BE5D5E55EA
:106830000F255E1D3540029B099E5E40039B5E4016
:106840000F9B5E40119B56405E400B9B5E40BE5DC1
:106850000D9B5E5566460F250A363540069E039B06
:106860005E40049B5E400A9B7340109E73404B4009
:106870004340FB5C0D99079E4B5563460F210F3338
:106880000B4001994E4004994E400F994E4056409E
:10689000119A0D9956400B9A5640BA5DCA5404237A
:1068A0009C446346102B00D008E70C9B103B0C93D4
:1068B000F5E61398059A2900FFF7CEFC00201DB0DD
:1068C000F0BDC04694F70000F0B507000D001600BB
:1068D0001C0085B0002C1DD010232A00694638000A
:1068E000FFF7ECFC320029003800FFF78BFE013C7B
:1068F000002802D0FF2005B0F0BD30000A99FFF754
:1069000093FC10236A460A993800FFF7D7FC10362B
:106910001035DFE72000EEE7FC300068704700002C
:1069200030B50200406806280ED81400F832FC3456
:1069300002F0F0FE17171704040404000B0704D13B
:1069400021602368591A116030BD0D4B0B4004D5EE
:106950001020013B404203430133CB1A1033236024
:10696000EFE70800064B10300B4004D51025013B23
:106970006D422B430133C31A23605B1A1360E3E7B4
:106980000F000080F7B507001400FC3701903A684B
:10699000200004F0BBFE019E3B68F83632689D1A69
:1069A000019A3B685068AB421CDD062807D802F00C
:1069B000B1FE040808080A120C003368635501355B
:1069C000EEE70023FAE72023F8E7019B32689B18E3
:1069D000FF331B78F2E705F0E7FBFF2103F01EF819
:1069E0006155ECE7012803D132689B1A8022E254FA
:1069F000019B5B68022B04D13B68E4183368013CBF
:106A00002370F7BD70B503004068062809D802F06E
:106A100081FE042B040824080A00891801390B7828
:106A2000D21A100070BD1C000025881801381034DF
:106A300001330678FF34FF33207886420BD0013CC7
:106A400005009C42F8D1013A002A02DB8B5C8342AC
:106A5000F9D00132E5E72800F5E7013A002AF8DB32
:106A60008B5C202BF9D0F4E7013A002AD9DB8B5C50
:106A7000002BF9D0D5E7F0B50400250085B002AFB2
:106A8000796011003B60FFF74BFF6A46FC352B68CD
:106A900079680733DB08DB00D31A9D4602AE32006B
:106AA0002000FFF76FFF0F222B68396ADD171540B2
:106AB000ED187B6A20009AB2FFF726FCBB6A2D1105
:106AC00000933A682B0031002000FFF77BFDBD46A4
:106AD000F7BDF7B51E000300FC331A60099B1500D3
:106AE0000F009AB208990400FFF70EFC0F22EB1773
:106AF00013400A9A5B1939001B11009220003200E2
:106B0000FFF7E2FE2A0031002000FFF77BFFFEBD09
:106B1000F0B504000D0016001F0085B00B9B0A990C
:106B20009AB2FFF7F1FB0C9B320002930B9B2900FA
:106B300001930A9B200000933B00FFF79CFF20007D
:106B4000FFF7EAFE80B205B0F0BD1FB5089C0294C5
:106B5000079C0194069C0094FFF7BBFF80B204B031
:106B600010BD000010B5024801F0B3FE10BDC046D4
:106B7000540A002010B5024801F0ABFE10BDC0461B
:106B800010080020F7B501240326154F15493800D9
:106B900000F042F81449154800F03EF81449154831
:106BA00000F03AF81449154800F036F81449154831
:106BB00000F032F8144D1549280000F02DF8390086
:106BC0000096230001940022114801F0FBFD00967D
:106BD000290001941E231F220E4801F0F3FDF7BD8A
:106BE000980C002000080042000C0042A00C00207D
:106BF00000100042A80C002000140042B00C00203D
:106C000000180042B80C0020C00C0020001C0042FC
:106C1000540A00201008002000230371016070470F
:106C20009446F0B59E1E721E964162460568920714
:106C30002F6836063A4332432A60072505AC24788C
:106C40000068A4012940214342680024022B00D09F
:106C50005C03114321434160F0BD30B5C02503689A
:106C6000AD031C6812052A402243C0240904A40273
:106C700021401143196003685A6814435C6030BDB9
:106C80000123026811680B43136003681A68D20776
:106C9000FCD4DA69D207F9D470470223026811687C
:106CA0000B4313600268D3699B07FCD470470268EA
:106CB000137E9B0702D40379002BF9D100230371C3
:106CC0007047002203685A8370470368187E4007A4
:106CD000C00F70470368187EC009704780230268A0
:106CE0005B42117E0B43137670470368588B800715
:106CF000C00F704702230268518B0B4353837047C8
:106D00000368187EC007C00F70470368188DC0B2B3
:106D1000704703681A7ED207FCD589B21985012312
:106D2000037118007047012203689A7570470122A9
:106D300003681A757047000070B5012604684B0897
:106D400033403140256809075B070B432B43236021
:106D500004685100034802F0F1FC0138C0B220730E
:106D600070BDC046006CDC020123026811680B4351
:106D7000136003681A68D207FCD4DA69D207F9D421
:106D800070470223026811680B4313600268D369DD
:106D90009B07FCD470470368DA699207FCD4022190
:106DA0001A688A431A607047036818684000C00F69
:106DB00070470268936A5B0A5B0219439162036839
:106DC0001A7E5207FCD5986AC0B270470123026848
:106DD00011680B43136003681A68D207FCD4DA69A0
:106DE000D207F9D470470223026811680B4313607D
:106DF0000368DA699207FCD430215A8B8A43110068
:106E000010220A435A830268D3695B07FCD4704797
:106E10000221026813688B4313600268D3699B07E1
:106E2000FCD4704780230268DB02116851680B4371
:106E300053607047036803491A685A680A405A60E9
:106E40007047C046FFFFFBFF032230B503681140C7
:106E50001C68074D5A6809042A40E4061143640F70
:106E60005960052C03D10268D3695B07FCD430BD9F
:106E7000FFFFFCFF70B5056804006B8B9B069B0F42
:106E8000022B0DD06B8B00209B069B0F032B32D067
:106E90006B8B9B0704D56B8B9B069B0F012B2AD119
:106EA0006B6A49001143DB0AC9B2DB020B436B6218
:106EB0002368002A13D11A7ED207FCD55B8B9B0670
:106EC0009B0F022B04D0490800222000FFF7D2FFBD
:106ED0002368588B4007C30F012058400BE0187EF1
:106EE0008007C00FF4D11A7ED207F8D5C0225968A6
:106EF00092020A435A6070BD036828331970026811
:106F0000107EC007C30F508B002B06D1C007C00FE7
:106F100008D1538B9B07F3D570474007C30F01205F
:106F20005840F9E71800F7E7036828331970036839
:106F300000201A7E520704D5588B01234007C00F4A
:106F40005840704703681868C006400F0438434231
:106F50005841C0B270470368588B8006800F0238D2
:106F600043425841C0B270470368187E4007C00FC3
:106F700070470368187EC007C00F70470368588BBE
:106F8000C006C00F70470368187E8007C00F7047A7
:106F90000368588B0007C00F704703681A68D20651
:106FA000520F052A05D11A7E920702D41A7ED20703
:106FB000F9D528331878C0B2704700000368214A19
:106FC00030B593422FD0204A93422FD01F4A93428C
:106FD0002FD01F4A93422FD01E4A93422FD01E4AD1
:106FE00093421FD10E2319220121032599401B48EA
:106FF000C024016099082B40AB40FC359D408900BE
:107000000918A4000859A843C0259D402B0003433C
:107010000B518023DB011A43114B5A805A7852B22C
:10702000002AFBDB30BD09231422DDE70A231522E9
:10703000DAE70B231622D7E70C231722D4E70D2318
:107040001822D1E700080042000C00420010004264
:107050000014004200180042001C004200E100E061
:10706000000C0040F8B504000F0016001D00FFF7EB
:10707000A5FF2000FFF704FE1C21BB000B40710799
:107080002268090C0B431360842322689375012F37
:107090001AD11021012E00D008390C4B6943186811
:1070A000C00002F04BFB0722216802408B8952038B
:1070B000DB04DB0C13438B81226803049089DB0C17
:1070C000400B400318439081F8BDC04604010020E6
:1070D000F7B50600019308AB1F780D001400FFF709
:1070E00043FE3000FFF76AFFC022240592031440DC
:1070F000BA070C2717433C43C0270722BF022D04C1
:1071000033683D4025431D60019B316813401A00E0
:1071100080239B0213434B60F7BD70B504000D0044
:107120001600FFF74BFF2000FFF750FE1C222168DE
:107130006D000B6893431A0010231343FF220B606A
:10714000236815405D62002E04D001232268516A35
:107150000B4353620723226893752268D3695B0748
:10716000FCD470BDF8B504000F00FFF727FF200026
:10717000FFF72CFE1422236879001A600C4B256857
:107180001E68300002F0DAFA0A490400300002F00A
:10719000D5FA7D23FA215843C90002F0CFFAFF2324
:1071A000241AE868053C1C4098430443EC60F8BD91
:1071B0000401002040420F000020704770B50F26E8
:1071C000CB1D013902003240D5B22C000009303409
:1071D000092A00DD07341C70013B8B42F2D170BDDF
:1071E00010B50C000B4B1868FFF7E8FF21000A4BA5
:1071F00008311868FFF7E2FF2100084B10311868CA
:10720000FFF7DCFF2100064B18311868FFF7D6FFA7
:10721000202010BD0CA0800040A0800044A0800071
:1072200048A0800008B4024B9C46103808BC604758
:10723000E1710000704770473F20704713B56B46FF
:107240000268D9710733546819000122A04716BD9E
:1072500070B50A260B7892B06E44023305000B70AD
:107260003C220021300004F06DFA394801AC069050
:10727000384824210790062020776846364AA174B2
:107280002281364A364BA281FD3AFF3A8018C177F7
:10729000684623390630C17768460730C17702A8AF
:1072A000C1770720F277032608316944C87703A91C
:1072B000CE7710212B366E443170092621851F317F
:1072C00069440E700CA9053E0E7033212380022301
:1072D00069440B7006360DA90E7022493536A18619
:1072E0003B216E44307010A86274E27702703D3228
:1072F00069446A440B70137040210022E3702371CB
:107300006371A37341336B44218719705A702B7DCD
:10731000C039A370A37263770133DBB2A3776A7DB0
:107320000B200D0068441543C57731206844037075
:107330003A23501C6B441870412302320A436B44B9
:107340001A7021004222084800F01EFD12B070BDE4
:1073500010010424020605240904000001020000B3
:10736000080B0000070500002C0D002008B4024B9C
:107370009C46103808BC604751720000F8B5027D89
:107380000B7904000D0000279A420CD10B784E783F
:10739000A12B0AD1212E06D10100072234311C482D
:1073A00000F0F2FC01373800F8BD212BFBD1202E74
:1073B00023D1010007223431154800F01BFC96232D
:1073C000626BDB009A421FD13B342378DB071BD46E
:1073D000FA2002F049F900210D4800F0F3FD0127E1
:1073E000232EE0D1EB78AA781B021343094A00212F
:1073F0000748136000F0E6FDD5E7222EEFD1030029
:107400008A783B331A70DAE702F038F9E3E7C046CE
:107410002C0D0020FC00002008B4024B9C461038C4
:1074200008BC60477D73000010B53430082200218D
:1074300004F088F910BD000010B5417D006A0131EB
:1074400000F002FB034B1B6801335A1E93411818CE
:1074500010BDC0460001002010B5417D006A023118
:1074600000F008FB10BD10B5417D006A023100F04C
:10747000CFFA10BD70B50D00417D0400130002313C
:107480002A00006A00F0CAFB002801D101236360D2
:1074900070BD000010B5054C23685A1C04D1036868
:1074A0005B69984703002060180010BD00010020B0
:1074B000074A0300106810B5411C03D001235B424A
:1074C000136010BD597D186A013100F057FBF8E7D1
:1074D0000001002070B5050001F0D2FDF423FF3358
:1074E0000024984207D93B352C780A20631E9C4122
:1074F000E4B201F0FBFD200070BD00207047704732
:1075000070470000FA239B0010B58360114B0022E6
:10751000C3820300283383610F4B04004260C261C1
:107520001800503323610830631D21622060DA7730
:107530000A4A2F3303CA03C38323A362813BE36256
:107540008033236301F004FB2100103101F0D1FAF4
:10755000200010BD03020000ECFC0000E4FC000071
:10756000022110B5094B1A68437D5B01D318FF3324
:107570009C7A21439972437D0133DBB25B01D318BE
:107580000122FF33997A0A439A7210BDE411002058
:1075900010B502490248FFF7B5FF10BD2C0D0020C1
:1075A000C80C0020704710B5040001F027FE200031
:1075B00010BD0000F0B5822919D1C3B2294D5A017E
:1075C000AA189169284C80010C40C02189052143EB
:1075D00091612649083340187021506128685B0189
:1075E0001A5C8A43110030220A431A54F0BD002964
:1075F000FCD1C026C1B21B4C4B01E3189A681A4D4E
:10760000B6052A4032439A60194A800182185A60AE
:107610000A000727246808325201115DB9430F00A0
:107620000121394311559F6910493D4040182E43AF
:107630009E6158617020115D814308001021014353
:10764000115599680B48A21808408021490301434D
:1076500099609968890B89039960402311790B43DC
:107660001371C3E7E4110020FFFFFF8F580D0020C6
:10767000180F0020FF3F00F0EFF310830360012399
:10768000436072B670470368002B02D162B6BFF345
:107690006F8F704773B5836D0400002B1BD10600FC
:1076A000A83635786846FFF7E7FF019BEDB2013B4E
:1076B00002D33578EDB2FAE768460193FFF7E3FFAE
:1076C000002D01D1002076BD2300A4331868A0341A
:1076D0002368C01AF7E76846FFF7CEFF22000025AF
:1076E000019BF432013B02D31578EDB2FAE768460C
:1076F0000193FFF7C8FF002DE4D02300F033186892
:10770000EC34E5E710B5436D4468DBB25A01A218CA
:10771000916809480833084080214903014391607A
:1077200091685B01890B890391602268D31840221C
:1077300019790A431A7110BDFF3F00F0F7B5436D88
:107740004268DBB219000400083110684901411891
:10775000C979C90711D55B01D21893689B049B0CAA
:107760000CD12000FFF7CEFF63681A68636DDBB2AF
:1077700008335B01D3187F22DA71F7BDE16D002970
:1077800023D12100A4310B6023000125AC33E56532
:1077900068465360FFF770FF260020002100019B20
:1077A000A836013BF430F5315A1C33D035700278DD
:1077B0005F1ED2B20A700A78002A04D12000019319
:1077C000FFF7A0FFE8E73B00EEE72100F0310B6098
:1077D0000023E3652300603353606846FFF74CFFE6
:1077E0000125260020002100019BF436013BA83032
:1077F000F5315A1C0ED0357002785F1ED2B20A7075
:107800000A78002A04D120000193FFF77BFFE8E704
:107810003B00EEE768460193FFF735FFA4E737B575
:107820006B46DC1D00230D00237001F091F921004F
:1078300001F01CF92B681818286020783EBD000064
:107840000078002810D00121084B1B681A898A4350
:107850001A810822198B0A431A830422198B0A43BE
:107860001A830022024B1A607047C046E4110020C0
:10787000DC11002010B50F4A93699B0B9B039361A9
:1078800013680222FF331A729879823A02439A717E
:107890001A7A9207FCD57F24074A2140937A080080
:1078A000A3431900802301439172917A5B420B43F9
:1078B000937210BDE41100200050004110B50C007F
:1078C00001F046F9210001F004F9002804D1034A2F
:1078D00093699B0B9B03936110BDC046E41100208C
:1078E000F8B50D00832A19D1CBB23B4C5A01A2182E
:1078F00091693A48AD010840C02189050143916171
:10790000374920686D187021083355615B011A5C96
:107910008A43110040220A431A54F8BD022A55D165
:10792000304A8B009858002802D003685B6998475A
:10793000F82001F05FFC0400274E2B4B46600360EB
:1079400040220021083003F0FDFE22000023A03277
:10795000A3646565E3642365A365E3655360D3644D
:107960001372136013654C3213725372FF222B0093
:107970001340590171188868184F08330740C02018
:10798000800538438860306807265B01195CAD00CC
:10799000B1430E000321314319542300616D606827
:1079A00011404901411860334B60616D63680A40C2
:1079B0001B6852019B180122FF33997A20000A4369
:1079C0009A72FFF79FFE074B5C51A6E71100280053
:1079D000FFF7F0FDA1E7C046E4110020FFFFFF8F95
:1079E000580D0020300D002054FD000070B505003A
:1079F0000124064BA200D258002A06D021002800FC
:107A00000134FFF76DFF0A2CF3D170BD040D002087
:107A10000B4BCAB20B488901C9185301C3185961ED
:107A200099690832890B89039961036852019A1890
:107A30000223D3715179823B0B4353717047C04687
:107A4000580D0020E4110020084B8A00D05810B5D2
:107A5000002803D003689B68984710BDC9B2044B47
:107A60004901591888688004800CF6E7300D002021
:107A7000E411002010B50C00FFF7E6FF00280CD041
:107A8000064BE4B21B68083464011C198023627938
:107A90005B42134363710223E37110BDE4110020C4
:107AA000F0B51C00304B85B01B6807000D0002923A
:107AB000002B55D02D4E3178C9B2002902D11920A2
:107AC00001F046FD64233370294BAA00D0580028EA
:107AD00008D0036822005B680299984704002000E0
