:10000000007C0020E1070000F7000000F300000082
:1000100000000000000000000000000000000000E0
:10002000000000000000000000000000EF000000E1
:100030000000000000000000EB000000E9000000EC
:1000400010B5064C2378002B07D1054B002B02D0AE
:10005000044800E000BF0123237010BD28020020E7
:1000600000000000C4120000044B10B5002B03D0A8
:100070000349044800E000BF10BDC0460000000076
:100080002C020020C4120000124B30B51B68002B5C
:100090001BD08021104AC902546855682943516019
:1000A0004108D1610D491180117DC907FCD59B081C
:1000B0000B499B001B18091A4518984206D1094B99
:1000C0001380137DDB07FCD5546030BD2D680560BF
:1000D0000430F1E7440200200040004144A5FFFF46
:1000E0009804002004A5FFFF704702BEFEE705BE8E
:1000F000FEE70DBEFEE70EBEFEE710230249CA680A
:100100001A42FCD07047C04600080040024A5378AB
:100110005BB2002BFBDB7047000C0040074AFF304E
:1001200053699B0B9B035361022303728279823BC9
:1001300013438371037A9B07FCD570479803002013
:10014000064B70B55D680400002D05D000F00AFF75
:10015000EB6801002000984770BDC04644020020B3
:10016000002110B5034B80220348996000F026FE61
:1001700010BDC0464402002018040020012370B5C1
:100180000025064C5B42257325616561A561E5612B
:100190002362FFF7E5FF656270BDC04644020020A0
:1001A000F8B51C4D07000800290028310B78140011
:1001B000002B12D1184B194A194E1A645A6C920B23
:1001C00092035A645A6C32405A64A222402352006D
:1001D000BE5C3343BB5401230B704826FF36BB5D26
:1001E000DB07DB0F13D00C4A536C9B049B0C9C4227
:1001F00002D9546CA404A40C2200084900F0A9FE02
:100200000123BB55002328352B702000F8BD1C00AE
:10021000FBE7C0464402002098030020580300205A
:10022000FF3F00F013B56B46DC1D044B012221009B
:10023000D86AFFF7B5FF207816BDC04644020020FB
:10024000F7B5009001201C4D1C005B0116000193C6
:10025000EA18536910325B005B0F03339840B042D9
:1002600021D8802350681B06034353606301ED18B7
:1002700029616B69B1049B0B890C9B030B436B6178
:100280006B690E4908340B406B61009B64011C19BB
:100290000223E3716279823B13436371E3799B0725
:1002A000FCD53000FEBD064BA701FF183200380018
:1002B00000F04FFE3900D9E798030020FF3F00F01F
:1002C0009802002010B50C000A0001000348012329
:1002D000C06AFFF7B5FF200010BDC04644020020F1
:1002E000012307B5019004481A0001A9C06AFFF76D
:1002F000A7FF01200EBDC0464402002070B50500D6
:10030000C0B0080016000C0000F02CFE6B46400048
:10031000023018706A46032376085370023B5A1E57
:10032000A15C5A00002901D09E4206DC00236946E8
:100330002800FFF785FF40B070BD68460133815249
:10034000EDE7F7B5056808222900AB8B06001340DE
:10035000FF31002B27D080234020C024AA830932FC
:10036000AB724A7088714B71B44BB54D5A68A40595
:100370002A4022435A605A692A401443B14A5C61B8
:100380001A60B14AB14C1A615A6814408022920234
:1003900022435A605A68920B92035A6000234871B4
:1003A00033713079FEBD10200A7A0242F9D0A54A95
:1003B00008721778A648A74C07705778A6480770A8
:1003C00097786787D778608F3F02074367871779E9
:1003D000A7875779A08F3F020743A78797799C4843
:1003E000E787D279E78F12021743E78740279A4AB7
:1003F0004F7112780078120202439848824200D16D
:10040000F3E027DC8020400082421DD00CDC812AF2
:1004100004D0822A00D1BDE0802A15D12100A21C7F
:10042000D387403102224DE081235B009A4200D104
:100430002AE100DAF8E0FF33FF339A4200D1CFE03F
:10044000874B9A4200D1EFE02023FF35AA7913436E
:10045000AB71A6E7902109018A426AD017DCD0214E
:10046000C9008A4222D0882109018A4200D18EE047
:10047000A023DB009A42E7D12800FFF74FFE80233C
:10048000628F5B4213433268DBB2937289E7754B2C
:100490009A4200D1C8E0D7DD734B9A4200D151E1B6
:1004A000724B9A42D0D1638F7371BDE0638F1B0A88
:1004B000012B0BD11222E38F934201D8E28F92B22B
:1004C00000236B492800FFF7BBFE6AE7638F1B0A16
:1004D000022B08D14322E38F934201D8E28F92B2DC
:1004E00000236449EEE7638F1B0A032BACD1638FB3
:1004F000DBB2012B16D0002B05D0022BA4D1E28F4A
:100500005D49D2B211E05A490422123101A800F02B
:1005100020FD0422E38F934201D8E28F92B20023A0
:1005200001A9CFE7E28F5549D2B22800FFF7E6FED6
:1005300037E7638F28003371FFF7F0FDA023032214
:10054000C0215B00EA543D4B3D485A6C890502408E
:100550000A435A644622FF32AF54494A30241A648F
:1005600090225200AC545A6B0240114392225963BC
:1005700080215200A954434A1A63B0225200AF545A
:100580005A6F10405867B2235B00E95409E7311DE8
:10059000012297E7A21CD3875022A38F0F2013407C
:1005A000220042321370A38F0340A387A38F032B33
:1005B00016D81378002B0CD0A38F08335B01EB18EF
:1005C0009B799B062100DB0FA21CD38740310023BF
:1005D00028E7A38F08335B01EB189B79DB06F1E773
:1005E00020238A7913438B71DBE68022A38F0F21AE
:1005F0001340220042321370A38F0B40A387638FF6
:10060000002B00D020E7A38F002B00D11CE7A38F85
:10061000032B00D918E71378002B09D02022A38FD1
:1006200008335B01EB185A712800FFF777FDB8E635
:10063000A38F102208335B01EB18F4E79803002026
:10064000FFFFFF8F1803002098020020FF3F00F0FB
:100650007C020020440200207D02002002030000F2
:100660000103000021200000A12100002122000040
:10067000C410000000000020241100001811000028
:1006800058030020D80200208022A38F13402200AC
:10069000423213700F22A38F1340A387638F002B66
:1006A00000D0D1E6A38F002B00D1CDE6A38F032B82
:1006B00000D9C9E6230042331B78002B20D0A38F3A
:1006C00008335B01EB189B799B06ADD5A38F1132E4
:1006D00008335B01EB181A71A38F08335B01EB1829
:1006E000DB795B06A0D5A38F203208335B01EB18C2
:1006F000DA71A38F3E3A08335B01EB181A7193E766
:10070000A38F08335B01EB189B79DB0600D48BE7E2
:100710001022A38F08335B01EB181A71A38F0833E3
:100720005B01EB18DB799B0600D47DE7A38F921861
:1007300008335B01EB18DA71A38F1F3A08335B01B2
:10074000EB18DBE70822E38F934201D8E28F92B2E5
:10075000014900234431B5E600000020F8B50B4FF5
:10076000060038002C300D00FFF7EBFD2C000028B0
:1007700008D1050008E022003100F86AFFF710FDFB
:10078000241A3618002CF6D12800F8BD44020020A7
:1007900070B5084C050020002C300E00FFF7D1FD8D
:1007A00003000020834204D032002900E06AFFF7F2
:1007B000F7FC70BD4402002010B5084C20002C301E
:1007C000FFF7BFFD03000020834205D04823E26A03
:1007D000FF33D05CC007C00F10BDC04644020020EC
:1007E0000D4A0E4870B5824206D10D4A0D4B0021CC
:1007F00093420DD100F01AF80B4C00239442F4D030
:10080000D1188842F1D9E55804330D60F8E702C3E6
:100810009342FCD3EEE7C0460000002028020020EF
:100820009808002028020020C8120000F0B5CA4A2B
:10083000AFB0136800AF01331DD0C84BC849D0B268
:100840005964002817D1C74BC7491B78DB07DB0F5A
:100850000BD00860136883F30888FF2311009943C5
:10086000C24B99605368184705E00C68C048844241
:1008700000D065E10B601E210226BE4ABE4D5368C2
:100880008B4333435360BD4BAB82AB8A3343AB8264
:100890007A61EB683342FCD00123B94CA360FFF7C7
:1008A00035FCB84B6360FFF731FC8223DB016380CA
:1008B000FFF72CFC8022AB8C9343AB84FFF71DFC2D
:1008C000B14BEB62FFF719FCAA8CB04B1343AB841E
:1008D000FFF713FCAB8C1E438023AE841900403B12
:1008E000EA680A42FCD0EA681A42F9D00025FFF70C
:1008F00004FCA560FFF70AFCA54BA64E6360FFF75A
:1009000005FCC022A44B99487360036A12061B02BF
:100910001B0A134303620723B560336062B60121EB
:100920009E4A1933D0690F3503439D48D36103783C
:100930000B4303709B4B1878A843187018788446B3
:100940000620624610431870974802780A430270E6
:100950001A78154060221D70187802431A70934B64
:100960006380824B3B618C4BBB6063785BB2002B36
:10097000FBDB01238E4D2A7813432B70AB78DB070A
:10098000FCD41F218B4A13685B0B0B408B4200D1B8
:100990000523288D884C0B409B01204003432B8569
:1009A00013689B0C0B401F2B00D1023B1F20298D8D
:1009B000034081430B432B8513680722DB0D134053
:1009C000FA60934200D10323F9682A8D0B407B49DA
:1009D0001B030A4013437F222B852B787848134052
:1009E0002B7004232A78002113430C222B70686299
:1009F0002B8993432B812B890B3A93432B817F3295
:100A000000F0DCF90022554C6E4BE5626363022373
:100A1000228629780B43C0212B70BB6809067360BE
:100A20003B6925001B6A48351B021B0A0B433969C9
:100A30000B62FB68B260336001262000636B2C30D0
:100A40009847002800D02E702B78002BF5D05E4BF5
:100A50001A00183262601822B9180A00343361CBC8
:100A600061C261CB61C221CB21C27B697A699B687B
:100A70005B035B0F9B005B582360926892B2534309
:100A8000E364FFF77BFB237B012B00D0A8E0E36945
:100A900061698B42F7D2C91A402900D94021182038
:100AA0006022636838181B698018984738610028ED
:100AB000E9D0002518226023444908268C46BA183C
:100AC000D318EA5C236A534001205908034060466A
:100AD0005B420340013E4B40002EF5D13C4823626F
:100AE000636A591CC254E3696162581C2368E0615F
:100AF000994205D3C01A2369C018FFF7C5FA666288
:100B00003B6901359D42D5D16069E3698342BAD31F
:100B1000636A002B0AD0FF21226980182268C01A5C
:100B2000934214D3FFF7B0FA00236362236AA269E9
:100B3000DB432848934200D02748FFF701FBA0E79A
:100B4000264B0860013B002BFCD10B6082E6204D58
:100B5000E9540133E4E7C0460020000044020020CD
:100B60000420000038040040FC7F002000ED00E07D
:100B70003581730700400041000800400C0600006A
:100B8000000C004001050100B805FF7D040A0000CB
:100B90000007030010E000E0E7030000000400404D
:100BA000584400413C440041594400410640000083
:100BB00000500041246080003FF8FFFFFF8FFFFFDF
:100BC0009803002043030000C41000002083B8ED08
:100BD000980400202F1100003E11000048E8010099
:100BE00018202022636838181B6940218018984714
:100BF000002378603B613B697A68934200D142E709
:100C0000217B002952D118222023BA18D3183A691F
:100C1000D25C0D2A4AD0A3680A2A00D0A6E0584D1B
:100C2000E9542B78002B3FD05649280000F07BF97F
:100C3000002803D15448FFF783FA35E053492800D0
:100C400000F071F9002816D12268002A01D150481D
:100C5000F1E78023E16C4F4892009B018B42F6D272
:100C60007E695D08F5617D6928807D692D7DED07D0
:100C7000FBD59B18F2E706224749280000F079F9D6
:100C8000021E69D118216023444D7918B867C9182C
:100C9000280000F01FF9BE6FF860AE420AD140484C
:100CA000FFF74EFA00232373FFF75AFA3B6901332B
:100CB000A0E701363378202BFBD0002BEFD0182192
:100CC000602379180022C918300000F003F9BD6FC5
:100CD000B860AE42E3D02B78202B38D0002BDED08A
:100CE000182160237918C9180022280000F0F2F8B2
:100CF000BB6F9D42D3D0BB6F1A78202A29D0002A1F
:100D0000CDD1E36C002B0CD0802292019342C6D946
:100D1000244A9B18FA689A42C1D29B1ABA689A422E
:100D2000BDD8BB68002BBAD0802292019446FB68E4
:100D3000012263442361BB68524263610023226243
:100D40000232A061E36122736362174873E70135E1
:100D5000C1E70133BB67CEE71449280000F0E3F890
:100D6000002801D1124866E7124864E712487E2B3A
:100D700000D960E7591CA1600149CA5496E7C046F2
:100D800018040020471100004D1100005B11000005
:100D90006511000002A5FFFF6F1100001E04002076
:100DA0008611000000E0FFFF7611000093110000A3
:100DB00098110000A1110000AE11000003001218EC
:100DC000934200D1704719700133F9E7F0B51F0065
:100DD0000E0085B00390019102920A98347800F0D9
:100DE0008DF8082200194378751C134038D12D2C3A
:100DF00038D17478B51C01330093002F65D0102FC3
:100E000009D1302C07D120222B789343582B57D16E
:100E100010276C78023501203900404200F0BAF802
:100E2000060001203900404200F03AF90023012277
:100E30008C461800524221003039092917D80C007D
:100E4000A74222DD002B1EDB1300864205D301D111
:100E5000A44502DB0123784320182C780135EAE70A
:100E60002E00BAE72B2CC7D1B51C7478C4E721003B
:100E70004139192901D8373CE2E7210061391929A4
:100E800003D8573CDCE71300E7E7002B09DA2223FD
:100E90000120039A40421360029B002B0AD105B047
:100EA000F0BD009A002A00D04042029A002AF6D0F3
:100EB000002B01D06B1E0193029B019A1A60EEE792
:100EC0003024002FA7D10827A5E7302C9BD00A2774
:100ED000A1E7000037B51300064A05001068046A50
:100EE000002C00D1044C0A0000942900FFF76EFF8B
:100EF0003EBDC04650000020B4000020EC30006829
:100F0000704782B0002900D101A9101E06D0002B25
:100F100006D013780B601078431E984102B07047DA
:100F200002204042FAE702780B78002A03D0013011
:100F300001319A42F7D0D01A70470B1E04D0FF2A15
:100F400004D98A2303608B3B180070470A70012381
:100F5000FAE7002310B59A4200D110BDCC5CC4540E
:100F60000133F8E70023C25C0133002AFBD1581E8D
:100F70007047002330B59A420AD0013AC45CCD5C78
:100F8000AC4204D1934202D00133002CF6D1631B52
:100F9000180030BD002243088B4274D303098B42F2
:100FA0005FD3030A8B4244D3030B8B4228D3030C39
:100FB0008B420DD3FF22090212BA030C8B4202D3DB
:100FC0001212090265D0030B8B4219D300E0090A03
:100FD000C30B8B4201D3CB03C01A5241830B8B420C
:100FE00001D38B03C01A5241430B8B4201D34B03F5
:100FF000C01A5241030B8B4201D30B03C01A52415A
:10100000C30A8B4201D3CB02C01A5241830A8B42DE
:1010100001D38B02C01A5241430A8B4201D34B02C7
:10102000C01A5241030A8B4201D30B02C01A52412B
:10103000CDD2C3098B4201D3CB01C01A52418309DF
:101040008B4201D38B01C01A524143098B4201D319
:101050004B01C01A524103098B4201D30B01C01A44
:101060005241C3088B4201D3CB00C01A52418308BE
:101070008B4201D38B00C01A524143088B4201D3EB
:101080004B00C01A5241411A00D20146524110464B
:101090007047FFE701B5002000F006F802BDC0462A
:1010A0000029F7D076E770477047C046F8B5C046CC
:1010B000F8BC08BC9E467047F8B5C046F8BC08BCF2
:1010C0009E467047120100020200004041234D007D
:1010D000000201020001040309040000E102000013
:1010E00025020000B9070000C502000091070000BA
:1010F000C50200005D0700000800000010000000AD
:1011000020000000400000008000000000010000FE
:10111000000200000004000041726475696E6F20D7
:101120004C4C43005A65726F4B6579555342004FE2
:101130004B20575249544520444F4E450A004552D2
:1011400052204352430A0048454C4C4F004F4B201D
:10115000424F4F542076312E300A004552415345BC
:1011600020415050004F4B2045524153450A0057F3
:101170005249544520004F4B205752495445205264
:10118000454144590A004552522042414441524788
:10119000530A00444F4E45004F4B20444F4E450AE2
:1011A0000045525220554E4B4E4F574E0A00455265
:1011B0005220544F4F4C4F4E470A00504F534958FE
:1011C000002E000020202020202020202028282859
:1011D00028282020202020202020202020202020FF
:1011E0002020202088101010101010101010101047
:1011F0001010101004040404040404040404101067
:101200001010101010414141414141010101010103
:1012100001010101010101010101010101010110AF
:1012200010101010104242424242420202020202D8
:101230000202020202020202020202020202021080
:10124000101010200000000000000000000000004E
:10125000000000000000000000000000000000008E
:10126000000000000000000000000000000000007E
:10127000000000000000000000000000000000006E
:10128000000000000000000000000000000000005E
:10129000000000000000000000000000000000004E
:1012A000000000000000000000000000000000003E
:1012B000000000000000000000000000000000002E
:0812C000000000000000000026
:1012C8000902430002010080320904000001020201
:1012D8000000052400100104240200052406000172
:1012E8000524010001070583030800FF0904010024
:1012F800020A0000000705810240000007050202FB
:101308004000000000C201000000080014010100B4
:101318005400002000000000000000000000000051
:1013280000000000000000000000000000000000B5
:1013380000000000000000000000000000000000A5
:101348000000000000000000000000000000000095
:101358000000000000000000000000000000000085
:101368000000000000000000000000000000000075
:101378000000000043000000000000000000000022
:101388000000000000000000000000000000000055
:101398000000000043000000000000000000000002
:1013A8000000000000000000000000000000000035
:1013B80000000000430000000000000000000000E2
:1013C8000000000000000000000000000000000015
:1013D80000000000430000000000000000000000C2
:1013E80000000000000000000000000000000000F5
:1013F80000000000430000000000000000000000A2
:1014080000000000000000000000000000000000D4
:101418000000000043000000000000000000000081
:1014280000000000000000000000000000000000B4
:101438000000000043000000000000000000000061
:101448000000000000000000000000000000000094
:10145800000000003B0F0000030F00000000000028
:10146800C3110000C11100005A1100005A110000F8
:101478005A1100005A1100005A1100005A110000B8
:101488005A1100005A1100005A110000FFFFFFFF17
:10149800FFFFFFFFFFFFFFFFFFFF000001004153B9
:1014A800434949000000000000000000000000005F
:1014B8000000000000000000000000000000415390
:1014C800434949000000000000000000000000003F
:1014D8000000000000000000000000000000000004
:0814E800690000004100000052
:04000003000007E111
:00000001FF
